{
  "address": "0xe7f1725E7734CE288F8367e1Bb143E90bb3F0512",
  "abi": [
    {
      "anonymous": false,
      "inputs": [
        {
          "indexed": true,
          "internalType": "address",
          "name": "eventAddress",
          "type": "address"
        },
        {
          "indexed": false,
          "internalType": "string",
          "name": "fighterOne",
          "type": "string"
        },
        {
          "indexed": false,
          "internalType": "string",
          "name": "fighterTwo",
          "type": "string"
        },
        {
          "indexed": false,
          "internalType": "string",
          "name": "arena",
          "type": "string"
        },
        {
          "indexed": false,
          "internalType": "string",
          "name": "location",
          "type": "string"
        },
        {
          "indexed": false,
          "internalType": "bool",
          "name": "fightType",
          "type": "bool"
        },
        {
          "indexed": false,
          "internalType": "string",
          "name": "filename",
          "type": "string"
        }
      ],
      "name": "EventCreated",
      "type": "event"
    },
    {
      "anonymous": false,
      "inputs": [
        {
          "indexed": true,
          "internalType": "address",
          "name": "eventAddress",
          "type": "address"
        },
        {
          "indexed": false,
          "internalType": "bool",
          "name": "fightType",
          "type": "bool"
        }
      ],
      "name": "FightSetup",
      "type": "event"
    },
    {
      "anonymous": false,
      "inputs": [
        {
          "indexed": false,
          "internalType": "address",
          "name": "eventAddress",
          "type": "address"
        }
      ],
      "name": "JudgeAdded",
      "type": "event"
    },
    {
      "anonymous": false,
      "inputs": [
        {
          "indexed": false,
          "internalType": "address",
          "name": "eventAddress",
          "type": "address"
        },
        {
          "indexed": false,
          "internalType": "uint256",
          "name": "head",
          "type": "uint256"
        },
        {
          "indexed": false,
          "internalType": "uint256",
          "name": "body",
          "type": "uint256"
        },
        {
          "indexed": false,
          "internalType": "uint256",
          "name": "legs",
          "type": "uint256"
        }
      ],
      "name": "JudgesVotesTailled",
      "type": "event"
    },
    {
      "anonymous": false,
      "inputs": [
        {
          "indexed": true,
          "internalType": "address",
          "name": "previousOwner",
          "type": "address"
        },
        {
          "indexed": true,
          "internalType": "address",
          "name": "newOwner",
          "type": "address"
        }
      ],
      "name": "OwnershipTransferred",
      "type": "event"
    },
    {
      "anonymous": false,
      "inputs": [
        {
          "indexed": true,
          "internalType": "address",
          "name": "eventAddress",
          "type": "address"
        },
        {
          "indexed": true,
          "internalType": "address",
          "name": "userAddress",
          "type": "address"
        }
      ],
      "name": "ParticipantHasJoined",
      "type": "event"
    },
    {
      "anonymous": false,
      "inputs": [
        {
          "indexed": true,
          "internalType": "address",
          "name": "eventAddress",
          "type": "address"
        },
        {
          "indexed": true,
          "internalType": "address",
          "name": "userAddress",
          "type": "address"
        }
      ],
      "name": "ParticipantUpdated",
      "type": "event"
    },
    {
      "inputs": [
        {
          "internalType": "string",
          "name": "_fighterOne",
          "type": "string"
        },
        {
          "internalType": "string",
          "name": "_fighterTwo",
          "type": "string"
        },
        {
          "internalType": "string",
          "name": "_arena",
          "type": "string"
        },
        {
          "internalType": "string",
          "name": "_location",
          "type": "string"
        },
        {
          "internalType": "bool",
          "name": "_fightType",
          "type": "bool"
        },
        {
          "internalType": "string",
          "name": "_filename",
          "type": "string"
        }
      ],
      "name": "create",
      "outputs": [],
      "stateMutability": "nonpayable",
      "type": "function"
    },
    {
      "inputs": [],
      "name": "owner",
      "outputs": [
        {
          "internalType": "address",
          "name": "",
          "type": "address"
        }
      ],
      "stateMutability": "view",
      "type": "function"
    },
    {
      "inputs": [],
      "name": "renounceOwnership",
      "outputs": [],
      "stateMutability": "nonpayable",
      "type": "function"
    },
    {
      "inputs": [
        {
          "internalType": "address",
          "name": "newOwner",
          "type": "address"
        }
      ],
      "name": "transferOwnership",
      "outputs": [],
      "stateMutability": "nonpayable",
      "type": "function"
    },
    {
      "inputs": [],
      "name": "updateParticipantRound",
      "outputs": [],
      "stateMutability": "nonpayable",
      "type": "function"
    },
    {
      "inputs": [],
      "name": "userJoinEvent",
      "outputs": [],
      "stateMutability": "payable",
      "type": "function"
    }
  ],
  "transactionHash": "0xfe5bde8c32195047416ce38b031b1bcaa56a66270f4ea02b07a89d964badb34a",
  "args": [],
  "numDeployments": 1,
  "solcInputHash": "f2c5b331bc2ce765caa5927f58b624a2",
  "bytecode": "0x608060405234801561001057600080fd5b5061002d61002261003260201b60201c565b61003a60201b60201c565b6100fe565b600033905090565b60008060009054906101000a900473ffffffffffffffffffffffffffffffffffffffff169050816000806101000a81548173ffffffffffffffffffffffffffffffffffffffff021916908373ffffffffffffffffffffffffffffffffffffffff1602179055508173ffffffffffffffffffffffffffffffffffffffff168173ffffffffffffffffffffffffffffffffffffffff167f8be0079c531659141344cd1fd0a4f28419497f9722a3daafe3b4186f6b6457e060405160405180910390a35050565b610dab8061010d6000396000f3fe6080604052600436106100555760003560e01c80632216b9501461005a578063715018a61461006457806374e649bc1461007b5780638da5cb5b14610092578063c617e4ae146100bd578063f2fde38b146100e6575b600080fd5b61006261010f565b005b34801561007057600080fd5b506100796101b5565b005b34801561008757600080fd5b506100906101c9565b005b34801561009e57600080fd5b506100a76101cb565b6040516100b491906105be565b60405180910390f35b3480156100c957600080fd5b506100e460048036038101906100df919061076b565b6101f4565b005b3480156100f257600080fd5b5061010d600480360381019061010891906108b0565b6103b0565b005b67011c37937e0800003411610159576040517f08c379a00000000000000000000000000000000000000000000000000000000081526004016101509061093a565b60405180910390fd5b3373ffffffffffffffffffffffffffffffffffffffff163073ffffffffffffffffffffffffffffffffffffffff167fdb0d7198c31de8b1348d4e4cfda4e14ebfa2386eaceb1be16c45fe24e12145ab60405160405180910390a3565b6101bd610433565b6101c760006104b1565b565b565b60008060009054906101000a900473ffffffffffffffffffffffffffffffffffffffff16905090565b6101fc610433565b6000865103610240576040517f08c379a0000000000000000000000000000000000000000000000000000000008152600401610237906109a6565b60405180910390fd5b6000855103610284576040517f08c379a000000000000000000000000000000000000000000000000000000000815260040161027b90610a12565b60405180910390fd5b60008451036102c8576040517f08c379a00000000000000000000000000000000000000000000000000000000081526004016102bf90610a7e565b60405180910390fd5b600083510361030c576040517f08c379a000000000000000000000000000000000000000000000000000000000815260040161030390610aea565b60405180910390fd5b6000815103610350576040517f08c379a000000000000000000000000000000000000000000000000000000000815260040161034790610b56565b60405180910390fd5b3073ffffffffffffffffffffffffffffffffffffffff167fa314616167e2459bbfaa691cf8e1a47542410d071562dda9def2cebe4ff7812a8787878787876040516103a096959493929190610bf3565b60405180910390a2505050505050565b6103b8610433565b600073ffffffffffffffffffffffffffffffffffffffff168173ffffffffffffffffffffffffffffffffffffffff1603610427576040517f08c379a000000000000000000000000000000000000000000000000000000000815260040161041e90610ce9565b60405180910390fd5b610430816104b1565b50565b61043b610575565b73ffffffffffffffffffffffffffffffffffffffff166104596101cb565b73ffffffffffffffffffffffffffffffffffffffff16146104af576040517f08c379a00000000000000000000000000000000000000000000000000000000081526004016104a690610d55565b60405180910390fd5b565b60008060009054906101000a900473ffffffffffffffffffffffffffffffffffffffff169050816000806101000a81548173ffffffffffffffffffffffffffffffffffffffff021916908373ffffffffffffffffffffffffffffffffffffffff1602179055508173ffffffffffffffffffffffffffffffffffffffff168173ffffffffffffffffffffffffffffffffffffffff167f8be0079c531659141344cd1fd0a4f28419497f9722a3daafe3b4186f6b6457e060405160405180910390a35050565b600033905090565b600073ffffffffffffffffffffffffffffffffffffffff82169050919050565b60006105a88261057d565b9050919050565b6105b88161059d565b82525050565b60006020820190506105d360008301846105af565b92915050565b6000604051905090565b600080fd5b600080fd5b600080fd5b600080fd5b6000601f19601f8301169050919050565b7f4e487b7100000000000000000000000000000000000000000000000000000000600052604160045260246000fd5b610640826105f7565b810181811067ffffffffffffffff8211171561065f5761065e610608565b5b80604052505050565b60006106726105d9565b905061067e8282610637565b919050565b600067ffffffffffffffff82111561069e5761069d610608565b5b6106a7826105f7565b9050602081019050919050565b82818337600083830152505050565b60006106d66106d184610683565b610668565b9050828152602081018484840111156106f2576106f16105f2565b5b6106fd8482856106b4565b509392505050565b600082601f83011261071a576107196105ed565b5b813561072a8482602086016106c3565b91505092915050565b60008115159050919050565b61074881610733565b811461075357600080fd5b50565b6000813590506107658161073f565b92915050565b60008060008060008060c08789031215610788576107876105e3565b5b600087013567ffffffffffffffff8111156107a6576107a56105e8565b5b6107b289828a01610705565b965050602087013567ffffffffffffffff8111156107d3576107d26105e8565b5b6107df89828a01610705565b955050604087013567ffffffffffffffff811115610800576107ff6105e8565b5b61080c89828a01610705565b945050606087013567ffffffffffffffff81111561082d5761082c6105e8565b5b61083989828a01610705565b935050608061084a89828a01610756565b92505060a087013567ffffffffffffffff81111561086b5761086a6105e8565b5b61087789828a01610705565b9150509295509295509295565b61088d8161059d565b811461089857600080fd5b50565b6000813590506108aa81610884565b92915050565b6000602082840312156108c6576108c56105e3565b5b60006108d48482850161089b565b91505092915050565b600082825260208201905092915050565b7f4e6f7420656e6f7567682066756e6473206465706f7369746564000000000000600082015250565b6000610924601a836108dd565b915061092f826108ee565b602082019050919050565b6000602082019050818103600083015261095381610917565b9050919050565b7f666967687465724f6e652063616e7420626520656d7074790000000000000000600082015250565b60006109906018836108dd565b915061099b8261095a565b602082019050919050565b600060208201905081810360008301526109bf81610983565b9050919050565b7f6669676874657254776f2063616e7420626520656d7074790000000000000000600082015250565b60006109fc6018836108dd565b9150610a07826109c6565b602082019050919050565b60006020820190508181036000830152610a2b816109ef565b9050919050565b7f6172656e612063616e7420626520656d70747900000000000000000000000000600082015250565b6000610a686013836108dd565b9150610a7382610a32565b602082019050919050565b60006020820190508181036000830152610a9781610a5b565b9050919050565b7f6c6f636174696f6e2063616e7420626520656d70747900000000000000000000600082015250565b6000610ad46016836108dd565b9150610adf82610a9e565b602082019050919050565b60006020820190508181036000830152610b0381610ac7565b9050919050565b7f66696c656e616d652063616e7420626520656d70747900000000000000000000600082015250565b6000610b406016836108dd565b9150610b4b82610b0a565b602082019050919050565b60006020820190508181036000830152610b6f81610b33565b9050919050565b600081519050919050565b60005b83811015610b9f578082015181840152602081019050610b84565b60008484015250505050565b6000610bb682610b76565b610bc081856108dd565b9350610bd0818560208601610b81565b610bd9816105f7565b840191505092915050565b610bed81610733565b82525050565b600060c0820190508181036000830152610c0d8189610bab565b90508181036020830152610c218188610bab565b90508181036040830152610c358187610bab565b90508181036060830152610c498186610bab565b9050610c586080830185610be4565b81810360a0830152610c6a8184610bab565b9050979650505050505050565b7f4f776e61626c653a206e6577206f776e657220697320746865207a65726f206160008201527f6464726573730000000000000000000000000000000000000000000000000000602082015250565b6000610cd36026836108dd565b9150610cde82610c77565b604082019050919050565b60006020820190508181036000830152610d0281610cc6565b9050919050565b7f4f776e61626c653a2063616c6c6572206973206e6f7420746865206f776e6572600082015250565b6000610d3f6020836108dd565b9150610d4a82610d09565b602082019050919050565b60006020820190508181036000830152610d6e81610d32565b905091905056fea26469706673582212205f3a15c307b5c17e6503912e915eaa2ad7da61f5f5fd7921342aaf5caa761a7864736f6c63430008110033",
  "devdoc": {
    "kind": "dev",
    "methods": {
      "owner()": {
        "details": "Returns the address of the current owner."
      },
      "renounceOwnership()": {
        "details": "Leaves the contract without owner. It will not be possible to call `onlyOwner` functions anymore. Can only be called by the current owner. NOTE: Renouncing ownership will leave the contract without an owner, thereby removing any functionality that is only available to the owner."
      },
      "transferOwnership(address)": {
        "details": "Transfers ownership of the contract to a new account (`newOwner`). Can only be called by the current owner."
      }
    },
    "version": 1
  },
  "userdoc": {
    "kind": "user",
    "methods": {},
    "version": 1
  },
  "storageLayout": {
    "storage": [
      {
        "astId": 7,
        "contract": "contracts/Event.sol:Event",
        "label": "_owner",
        "offset": 0,
        "slot": "0",
        "type": "t_address"
      },
      {
        "astId": 2734,
        "contract": "contracts/Event.sol:Event",
        "label": "_tokenIdCounter",
        "offset": 0,
        "slot": "1",
        "type": "t_struct(Counter)1576_storage"
      },
      {
        "astId": 2764,
        "contract": "contracts/Event.sol:Event",
        "label": "tokenId",
        "offset": 0,
        "slot": "2",
        "type": "t_uint256"
      },
      {
        "astId": 2766,
        "contract": "contracts/Event.sol:Event",
        "label": "winningUserAddress",
        "offset": 0,
        "slot": "3",
        "type": "t_address"
      },
      {
        "astId": 2771,
        "contract": "contracts/Event.sol:Event",
        "label": "participants",
        "offset": 0,
        "slot": "4",
        "type": "t_mapping(t_address,t_struct(Participant)2762_storage)"
      },
      {
        "astId": 2775,
        "contract": "contracts/Event.sol:Event",
        "label": "rounds",
        "offset": 0,
        "slot": "5",
        "type": "t_array(t_struct(Round)2755_storage)dyn_storage"
      }
    ],
    "types": {
      "t_address": {
        "encoding": "inplace",
        "label": "address",
        "numberOfBytes": "20"
      },
      "t_array(t_struct(Round)2755_storage)dyn_storage": {
        "base": "t_struct(Round)2755_storage",
        "encoding": "dynamic_array",
        "label": "struct Event.Round[]",
        "numberOfBytes": "32"
      },
      "t_array(t_uint256)dyn_storage": {
        "base": "t_uint256",
        "encoding": "dynamic_array",
        "label": "uint256[]",
        "numberOfBytes": "32"
      },
      "t_mapping(t_address,t_struct(Participant)2762_storage)": {
        "encoding": "mapping",
        "key": "t_address",
        "label": "mapping(address => struct Event.Participant)",
        "numberOfBytes": "32",
        "value": "t_struct(Participant)2762_storage"
      },
      "t_string_storage": {
        "encoding": "bytes",
        "label": "string",
        "numberOfBytes": "32"
      },
      "t_struct(Counter)1576_storage": {
        "encoding": "inplace",
        "label": "struct Counters.Counter",
        "members": [
          {
            "astId": 1575,
            "contract": "contracts/Event.sol:Event",
            "label": "_value",
            "offset": 0,
            "slot": "0",
            "type": "t_uint256"
          }
        ],
        "numberOfBytes": "32"
      },
      "t_struct(Participant)2762_storage": {
        "encoding": "inplace",
        "label": "struct Event.Participant",
        "members": [
          {
            "astId": 2757,
            "contract": "contracts/Event.sol:Event",
            "label": "userAddress",
            "offset": 0,
            "slot": "0",
            "type": "t_address"
          },
          {
            "astId": 2761,
            "contract": "contracts/Event.sol:Event",
            "label": "rounds",
            "offset": 0,
            "slot": "1",
            "type": "t_array(t_struct(Round)2755_storage)dyn_storage"
          }
        ],
        "numberOfBytes": "64"
      },
      "t_struct(Round)2755_storage": {
        "encoding": "inplace",
        "label": "struct Event.Round",
        "members": [
          {
            "astId": 2746,
            "contract": "contracts/Event.sol:Event",
            "label": "title",
            "offset": 0,
            "slot": "0",
            "type": "t_string_storage"
          },
          {
            "astId": 2749,
            "contract": "contracts/Event.sol:Event",
            "label": "fighter_L",
            "offset": 0,
            "slot": "1",
            "type": "t_struct(Touch)2744_storage"
          },
          {
            "astId": 2752,
            "contract": "contracts/Event.sol:Event",
            "label": "fighter_R",
            "offset": 0,
            "slot": "4",
            "type": "t_struct(Touch)2744_storage"
          },
          {
            "astId": 2754,
            "contract": "contracts/Event.sol:Event",
            "label": "winner",
            "offset": 0,
            "slot": "7",
            "type": "t_uint256"
          }
        ],
        "numberOfBytes": "256"
      },
      "t_struct(Touch)2744_storage": {
        "encoding": "inplace",
        "label": "struct Event.Touch",
        "members": [
          {
            "astId": 2737,
            "contract": "contracts/Event.sol:Event",
            "label": "head",
            "offset": 0,
            "slot": "0",
            "type": "t_array(t_uint256)dyn_storage"
          },
          {
            "astId": 2740,
            "contract": "contracts/Event.sol:Event",
            "label": "body",
            "offset": 0,
            "slot": "1",
            "type": "t_array(t_uint256)dyn_storage"
          },
          {
            "astId": 2743,
            "contract": "contracts/Event.sol:Event",
            "label": "legs",
            "offset": 0,
            "slot": "2",
            "type": "t_array(t_uint256)dyn_storage"
          }
        ],
        "numberOfBytes": "96"
      },
      "t_uint256": {
        "encoding": "inplace",
        "label": "uint256",
        "numberOfBytes": "32"
      }
    }
  }
}