{
  "address": "0x5FbDB2315678afecb367f032d93F642f64180aa3",
  "abi": [
    {
      "inputs": [],
      "stateMutability": "nonpayable",
      "type": "constructor"
    },
    {
      "anonymous": false,
      "inputs": [
        {
          "indexed": true,
          "internalType": "address",
          "name": "owner",
          "type": "address"
        },
        {
          "indexed": true,
          "internalType": "address",
          "name": "approved",
          "type": "address"
        },
        {
          "indexed": true,
          "internalType": "uint256",
          "name": "tokenId",
          "type": "uint256"
        }
      ],
      "name": "Approval",
      "type": "event"
    },
    {
      "anonymous": false,
      "inputs": [
        {
          "indexed": true,
          "internalType": "address",
          "name": "owner",
          "type": "address"
        },
        {
          "indexed": true,
          "internalType": "address",
          "name": "operator",
          "type": "address"
        },
        {
          "indexed": false,
          "internalType": "bool",
          "name": "approved",
          "type": "bool"
        }
      ],
      "name": "ApprovalForAll",
      "type": "event"
    },
    {
      "anonymous": false,
      "inputs": [
        {
          "indexed": true,
          "internalType": "address",
          "name": "previousOwner",
          "type": "address"
        },
        {
          "indexed": true,
          "internalType": "address",
          "name": "newOwner",
          "type": "address"
        }
      ],
      "name": "OwnershipTransferred",
      "type": "event"
    },
    {
      "anonymous": false,
      "inputs": [
        {
          "indexed": true,
          "internalType": "address",
          "name": "from",
          "type": "address"
        },
        {
          "indexed": true,
          "internalType": "address",
          "name": "to",
          "type": "address"
        },
        {
          "indexed": true,
          "internalType": "uint256",
          "name": "tokenId",
          "type": "uint256"
        }
      ],
      "name": "Transfer",
      "type": "event"
    },
    {
      "inputs": [
        {
          "internalType": "address",
          "name": "to",
          "type": "address"
        },
        {
          "internalType": "uint256",
          "name": "tokenId",
          "type": "uint256"
        }
      ],
      "name": "approve",
      "outputs": [],
      "stateMutability": "nonpayable",
      "type": "function"
    },
    {
      "inputs": [
        {
          "internalType": "address",
          "name": "owner",
          "type": "address"
        }
      ],
      "name": "balanceOf",
      "outputs": [
        {
          "internalType": "uint256",
          "name": "",
          "type": "uint256"
        }
      ],
      "stateMutability": "view",
      "type": "function"
    },
    {
      "inputs": [
        {
          "internalType": "string",
          "name": "_firstname",
          "type": "string"
        },
        {
          "internalType": "string",
          "name": "_lastname",
          "type": "string"
        },
        {
          "internalType": "string",
          "name": "_email",
          "type": "string"
        },
        {
          "internalType": "string",
          "name": "_country",
          "type": "string"
        },
        {
          "internalType": "uint256",
          "name": "_dob",
          "type": "uint256"
        }
      ],
      "name": "create",
      "outputs": [],
      "stateMutability": "nonpayable",
      "type": "function"
    },
    {
      "inputs": [
        {
          "internalType": "uint256",
          "name": "tokenId",
          "type": "uint256"
        }
      ],
      "name": "getApproved",
      "outputs": [
        {
          "internalType": "address",
          "name": "",
          "type": "address"
        }
      ],
      "stateMutability": "view",
      "type": "function"
    },
    {
      "inputs": [
        {
          "internalType": "address",
          "name": "_contactAddress",
          "type": "address"
        }
      ],
      "name": "getTokenIds",
      "outputs": [],
      "stateMutability": "nonpayable",
      "type": "function"
    },
    {
      "inputs": [
        {
          "internalType": "address",
          "name": "owner",
          "type": "address"
        },
        {
          "internalType": "address",
          "name": "operator",
          "type": "address"
        }
      ],
      "name": "isApprovedForAll",
      "outputs": [
        {
          "internalType": "bool",
          "name": "",
          "type": "bool"
        }
      ],
      "stateMutability": "view",
      "type": "function"
    },
    {
      "inputs": [],
      "name": "name",
      "outputs": [
        {
          "internalType": "string",
          "name": "",
          "type": "string"
        }
      ],
      "stateMutability": "view",
      "type": "function"
    },
    {
      "inputs": [
        {
          "internalType": "address",
          "name": "operator",
          "type": "address"
        },
        {
          "internalType": "address",
          "name": "from",
          "type": "address"
        },
        {
          "internalType": "uint256",
          "name": "tokenId",
          "type": "uint256"
        },
        {
          "internalType": "bytes32",
          "name": "data",
          "type": "bytes32"
        }
      ],
      "name": "onIERC721Received",
      "outputs": [
        {
          "internalType": "bytes",
          "name": "",
          "type": "bytes"
        }
      ],
      "stateMutability": "nonpayable",
      "type": "function"
    },
    {
      "inputs": [],
      "name": "owner",
      "outputs": [
        {
          "internalType": "address",
          "name": "",
          "type": "address"
        }
      ],
      "stateMutability": "view",
      "type": "function"
    },
    {
      "inputs": [
        {
          "internalType": "uint256",
          "name": "tokenId",
          "type": "uint256"
        }
      ],
      "name": "ownerOf",
      "outputs": [
        {
          "internalType": "address",
          "name": "",
          "type": "address"
        }
      ],
      "stateMutability": "view",
      "type": "function"
    },
    {
      "inputs": [],
      "name": "renounceOwnership",
      "outputs": [],
      "stateMutability": "nonpayable",
      "type": "function"
    },
    {
      "inputs": [
        {
          "internalType": "address",
          "name": "from",
          "type": "address"
        },
        {
          "internalType": "address",
          "name": "to",
          "type": "address"
        },
        {
          "internalType": "uint256",
          "name": "tokenId",
          "type": "uint256"
        }
      ],
      "name": "safeTransferFrom",
      "outputs": [],
      "stateMutability": "nonpayable",
      "type": "function"
    },
    {
      "inputs": [
        {
          "internalType": "address",
          "name": "from",
          "type": "address"
        },
        {
          "internalType": "address",
          "name": "to",
          "type": "address"
        },
        {
          "internalType": "uint256",
          "name": "tokenId",
          "type": "uint256"
        },
        {
          "internalType": "bytes",
          "name": "data",
          "type": "bytes"
        }
      ],
      "name": "safeTransferFrom",
      "outputs": [],
      "stateMutability": "nonpayable",
      "type": "function"
    },
    {
      "inputs": [
        {
          "internalType": "address",
          "name": "operator",
          "type": "address"
        },
        {
          "internalType": "bool",
          "name": "approved",
          "type": "bool"
        }
      ],
      "name": "setApprovalForAll",
      "outputs": [],
      "stateMutability": "nonpayable",
      "type": "function"
    },
    {
      "inputs": [
        {
          "internalType": "bytes4",
          "name": "interfaceId",
          "type": "bytes4"
        }
      ],
      "name": "supportsInterface",
      "outputs": [
        {
          "internalType": "bool",
          "name": "",
          "type": "bool"
        }
      ],
      "stateMutability": "view",
      "type": "function"
    },
    {
      "inputs": [],
      "name": "symbol",
      "outputs": [
        {
          "internalType": "string",
          "name": "",
          "type": "string"
        }
      ],
      "stateMutability": "view",
      "type": "function"
    },
    {
      "inputs": [
        {
          "internalType": "uint256",
          "name": "tokenId",
          "type": "uint256"
        }
      ],
      "name": "tokenURI",
      "outputs": [
        {
          "internalType": "string",
          "name": "",
          "type": "string"
        }
      ],
      "stateMutability": "view",
      "type": "function"
    },
    {
      "inputs": [
        {
          "internalType": "address",
          "name": "from",
          "type": "address"
        },
        {
          "internalType": "address",
          "name": "to",
          "type": "address"
        },
        {
          "internalType": "uint256",
          "name": "tokenId",
          "type": "uint256"
        }
      ],
      "name": "transferFrom",
      "outputs": [],
      "stateMutability": "nonpayable",
      "type": "function"
    },
    {
      "inputs": [
        {
          "internalType": "address",
          "name": "newOwner",
          "type": "address"
        }
      ],
      "name": "transferOwnership",
      "outputs": [],
      "stateMutability": "nonpayable",
      "type": "function"
    }
  ],
  "transactionHash": "0xc1005029b7fc3369875d948dfecb95a18c1e45da7ff0c2f6a5ff5dd2ba85d52a",
  "args": [],
  "numDeployments": 1,
  "solcInputHash": "628c54211132674a55215a642932b0db",
  "bytecode": "0x60806040523480156200001157600080fd5b506040518060400160405280600781526020017f4d79546f6b656e000000000000000000000000000000000000000000000000008152506040518060400160405280600381526020017f4d544b000000000000000000000000000000000000000000000000000000000081525081600090816200008f919062000412565b508060019081620000a1919062000412565b505050620000c4620000b8620000ca60201b60201c565b620000d260201b60201c565b620004f9565b600033905090565b6000600660009054906101000a900473ffffffffffffffffffffffffffffffffffffffff16905081600660006101000a81548173ffffffffffffffffffffffffffffffffffffffff021916908373ffffffffffffffffffffffffffffffffffffffff1602179055508173ffffffffffffffffffffffffffffffffffffffff168173ffffffffffffffffffffffffffffffffffffffff167f8be0079c531659141344cd1fd0a4f28419497f9722a3daafe3b4186f6b6457e060405160405180910390a35050565b600081519050919050565b7f4e487b7100000000000000000000000000000000000000000000000000000000600052604160045260246000fd5b7f4e487b7100000000000000000000000000000000000000000000000000000000600052602260045260246000fd5b600060028204905060018216806200021a57607f821691505b60208210810362000230576200022f620001d2565b5b50919050565b60008190508160005260206000209050919050565b60006020601f8301049050919050565b600082821b905092915050565b6000600883026200029a7fffffffffffffffffffffffffffffffffffffffffffffffffffffffffffffffff826200025b565b620002a686836200025b565b95508019841693508086168417925050509392505050565b6000819050919050565b6000819050919050565b6000620002f3620002ed620002e784620002be565b620002c8565b620002be565b9050919050565b6000819050919050565b6200030f83620002d2565b620003276200031e82620002fa565b84845462000268565b825550505050565b600090565b6200033e6200032f565b6200034b81848462000304565b505050565b5b8181101562000373576200036760008262000334565b60018101905062000351565b5050565b601f821115620003c2576200038c8162000236565b62000397846200024b565b81016020851015620003a7578190505b620003bf620003b6856200024b565b83018262000350565b50505b505050565b600082821c905092915050565b6000620003e760001984600802620003c7565b1980831691505092915050565b6000620004028383620003d4565b9150826002028217905092915050565b6200041d8262000198565b67ffffffffffffffff811115620004395762000438620001a3565b5b62000445825462000201565b6200045282828562000377565b600060209050601f8311600181146200048a576000841562000475578287015190505b620004818582620003f4565b865550620004f1565b601f1984166200049a8662000236565b60005b82811015620004c4578489015182556001820191506020850194506020810190506200049d565b86831015620004e45784890151620004e0601f891682620003d4565b8355505b6001600288020188555050505b505050505050565b61306e80620005096000396000f3fe608060405234801561001057600080fd5b50600436106101215760003560e01c806370a08231116100ad578063b88d4fde11610071578063b88d4fde14610306578063c87b56dd14610322578063d004b03614610352578063e985e9c51461036e578063f2fde38b1461039e57610121565b806370a0823114610274578063715018a6146102a45780638da5cb5b146102ae57806395d89b41146102cc578063a22cb465146102ea57610121565b80631afb0b28116100f45780631afb0b28146101c057806323b872dd146101f05780632fde70d11461020c57806342842e0e146102285780636352211e1461024457610121565b806301ffc9a71461012657806306fdde0314610156578063081812fc14610174578063095ea7b3146101a4575b600080fd5b610140600480360381019061013b9190611bc8565b6103ba565b60405161014d9190611c10565b60405180910390f35b61015e61049c565b60405161016b9190611cbb565b60405180910390f35b61018e60048036038101906101899190611d13565b61052e565b60405161019b9190611d81565b60405180910390f35b6101be60048036038101906101b99190611dc8565b610574565b005b6101da60048036038101906101d59190611e3e565b61068b565b6040516101e79190611efa565b60405180910390f35b61020a60048036038101906102059190611f1c565b610695565b005b610226600480360381019061022191906120a4565b6106f5565b005b610242600480360381019061023d9190611f1c565b610991565b005b61025e60048036038101906102599190611d13565b6109b1565b60405161026b9190611d81565b60405180910390f35b61028e6004803603810190610289919061218f565b610a37565b60405161029b91906121cb565b60405180910390f35b6102ac610aee565b005b6102b6610b02565b6040516102c39190611d81565b60405180910390f35b6102d4610b2c565b6040516102e19190611cbb565b60405180910390f35b61030460048036038101906102ff9190612212565b610bbe565b005b610320600480360381019061031b91906122f3565b610bd4565b005b61033c60048036038101906103379190611d13565b610c36565b6040516103499190611cbb565b60405180910390f35b61036c6004803603810190610367919061218f565b610c9e565b005b61038860048036038101906103839190612376565b610ca9565b6040516103959190611c10565b60405180910390f35b6103b860048036038101906103b3919061218f565b610d3d565b005b60007f80ac58cd000000000000000000000000000000000000000000000000000000007bffffffffffffffffffffffffffffffffffffffffffffffffffffffff1916827bffffffffffffffffffffffffffffffffffffffffffffffffffffffff1916148061048557507f5b5e139f000000000000000000000000000000000000000000000000000000007bffffffffffffffffffffffffffffffffffffffffffffffffffffffff1916827bffffffffffffffffffffffffffffffffffffffffffffffffffffffff1916145b80610495575061049482610dc0565b5b9050919050565b6060600080546104ab906123e5565b80601f01602080910402602001604051908101604052809291908181526020018280546104d7906123e5565b80156105245780601f106104f957610100808354040283529160200191610524565b820191906000526020600020905b81548152906001019060200180831161050757829003601f168201915b5050505050905090565b600061053982610e2a565b6004600083815260200190815260200160002060009054906101000a900473ffffffffffffffffffffffffffffffffffffffff169050919050565b600061057f826109b1565b90508073ffffffffffffffffffffffffffffffffffffffff168373ffffffffffffffffffffffffffffffffffffffff16036105ef576040517f08c379a00000000000000000000000000000000000000000000000000000000081526004016105e690612488565b60405180910390fd5b8073ffffffffffffffffffffffffffffffffffffffff1661060e610e75565b73ffffffffffffffffffffffffffffffffffffffff16148061063d575061063c81610637610e75565b610ca9565b5b61067c576040517f08c379a00000000000000000000000000000000000000000000000000000000081526004016106739061251a565b60405180910390fd5b6106868383610e7d565b505050565b6060949350505050565b6106a66106a0610e75565b82610f36565b6106e5576040517f08c379a00000000000000000000000000000000000000000000000000000000081526004016106dc906125ac565b60405180910390fd5b6106f0838383610fcb565b505050565b600073ffffffffffffffffffffffffffffffffffffffff16600760000160009054906101000a900473ffffffffffffffffffffffffffffffffffffffff1673ffffffffffffffffffffffffffffffffffffffff1614610789576040517f08c379a000000000000000000000000000000000000000000000000000000000815260040161078090612618565b60405180910390fd5b60008551036107cd576040517f08c379a00000000000000000000000000000000000000000000000000000000081526004016107c490612684565b60405180910390fd5b6000845103610811576040517f08c379a0000000000000000000000000000000000000000000000000000000008152600401610808906126f0565b60405180910390fd5b6000835103610855576040517f08c379a000000000000000000000000000000000000000000000000000000000815260040161084c9061275c565b60405180910390fd5b6000825103610899576040517f08c379a0000000000000000000000000000000000000000000000000000000008152600401610890906127c8565b60405180910390fd5b6040518060c001604052803373ffffffffffffffffffffffffffffffffffffffff16815260200186815260200185815260200184815260200183815260200182815250600760008201518160000160006101000a81548173ffffffffffffffffffffffffffffffffffffffff021916908373ffffffffffffffffffffffffffffffffffffffff160217905550602082015181600101908161093a9190612994565b5060408201518160020190816109509190612994565b5060608201518160030190816109669190612994565b50608082015181600401908161097c9190612994565b5060a082015181600501559050505050505050565b6109ac83838360405180602001604052806000815250610bd4565b505050565b6000806109bd836112c4565b9050600073ffffffffffffffffffffffffffffffffffffffff168173ffffffffffffffffffffffffffffffffffffffff1603610a2e576040517f08c379a0000000000000000000000000000000000000000000000000000000008152600401610a2590612ab2565b60405180910390fd5b80915050919050565b60008073ffffffffffffffffffffffffffffffffffffffff168273ffffffffffffffffffffffffffffffffffffffff1603610aa7576040517f08c379a0000000000000000000000000000000000000000000000000000000008152600401610a9e90612b44565b60405180910390fd5b600360008373ffffffffffffffffffffffffffffffffffffffff1673ffffffffffffffffffffffffffffffffffffffff168152602001908152602001600020549050919050565b610af6611301565b610b00600061137f565b565b6000600660009054906101000a900473ffffffffffffffffffffffffffffffffffffffff16905090565b606060018054610b3b906123e5565b80601f0160208091040260200160405190810160405280929190818152602001828054610b67906123e5565b8015610bb45780601f10610b8957610100808354040283529160200191610bb4565b820191906000526020600020905b815481529060010190602001808311610b9757829003601f168201915b5050505050905090565b610bd0610bc9610e75565b8383611445565b5050565b610be5610bdf610e75565b83610f36565b610c24576040517f08c379a0000000000000000000000000000000000000000000000000000000008152600401610c1b906125ac565b60405180910390fd5b610c30848484846115b1565b50505050565b6060610c4182610e2a565b6000610c4b61160d565b90506000815111610c6b5760405180602001604052806000815250610c96565b80610c7584611624565b604051602001610c86929190612ba0565b6040516020818303038152906040525b915050919050565b610ca6611301565b50565b6000600560008473ffffffffffffffffffffffffffffffffffffffff1673ffffffffffffffffffffffffffffffffffffffff16815260200190815260200160002060008373ffffffffffffffffffffffffffffffffffffffff1673ffffffffffffffffffffffffffffffffffffffff16815260200190815260200160002060009054906101000a900460ff16905092915050565b610d45611301565b600073ffffffffffffffffffffffffffffffffffffffff168173ffffffffffffffffffffffffffffffffffffffff1603610db4576040517f08c379a0000000000000000000000000000000000000000000000000000000008152600401610dab90612c36565b60405180910390fd5b610dbd8161137f565b50565b60007f01ffc9a7000000000000000000000000000000000000000000000000000000007bffffffffffffffffffffffffffffffffffffffffffffffffffffffff1916827bffffffffffffffffffffffffffffffffffffffffffffffffffffffff1916149050919050565b610e33816116f2565b610e72576040517f08c379a0000000000000000000000000000000000000000000000000000000008152600401610e6990612ab2565b60405180910390fd5b50565b600033905090565b816004600083815260200190815260200160002060006101000a81548173ffffffffffffffffffffffffffffffffffffffff021916908373ffffffffffffffffffffffffffffffffffffffff160217905550808273ffffffffffffffffffffffffffffffffffffffff16610ef0836109b1565b73ffffffffffffffffffffffffffffffffffffffff167f8c5be1e5ebec7d5bd14f71427d1e84f3dd0314c0f7b2291e5b200ac8c7c3b92560405160405180910390a45050565b600080610f42836109b1565b90508073ffffffffffffffffffffffffffffffffffffffff168473ffffffffffffffffffffffffffffffffffffffff161480610f845750610f838185610ca9565b5b80610fc257508373ffffffffffffffffffffffffffffffffffffffff16610faa8461052e565b73ffffffffffffffffffffffffffffffffffffffff16145b91505092915050565b8273ffffffffffffffffffffffffffffffffffffffff16610feb826109b1565b73ffffffffffffffffffffffffffffffffffffffff1614611041576040517f08c379a000000000000000000000000000000000000000000000000000000000815260040161103890612cc8565b60405180910390fd5b600073ffffffffffffffffffffffffffffffffffffffff168273ffffffffffffffffffffffffffffffffffffffff16036110b0576040517f08c379a00000000000000000000000000000000000000000000000000000000081526004016110a790612d5a565b60405180910390fd5b6110bd8383836001611733565b8273ffffffffffffffffffffffffffffffffffffffff166110dd826109b1565b73ffffffffffffffffffffffffffffffffffffffff1614611133576040517f08c379a000000000000000000000000000000000000000000000000000000000815260040161112a90612cc8565b60405180910390fd5b6004600082815260200190815260200160002060006101000a81549073ffffffffffffffffffffffffffffffffffffffff02191690556001600360008573ffffffffffffffffffffffffffffffffffffffff1673ffffffffffffffffffffffffffffffffffffffff168152602001908152602001600020600082825403925050819055506001600360008473ffffffffffffffffffffffffffffffffffffffff1673ffffffffffffffffffffffffffffffffffffffff16815260200190815260200160002060008282540192505081905550816002600083815260200190815260200160002060006101000a81548173ffffffffffffffffffffffffffffffffffffffff021916908373ffffffffffffffffffffffffffffffffffffffff160217905550808273ffffffffffffffffffffffffffffffffffffffff168473ffffffffffffffffffffffffffffffffffffffff167fddf252ad1be2c89b69c2b068fc378daa952ba7f163c4a11628f55a4df523b3ef60405160405180910390a46112bf8383836001611859565b505050565b60006002600083815260200190815260200160002060009054906101000a900473ffffffffffffffffffffffffffffffffffffffff169050919050565b611309610e75565b73ffffffffffffffffffffffffffffffffffffffff16611327610b02565b73ffffffffffffffffffffffffffffffffffffffff161461137d576040517f08c379a000000000000000000000000000000000000000000000000000000000815260040161137490612dc6565b60405180910390fd5b565b6000600660009054906101000a900473ffffffffffffffffffffffffffffffffffffffff16905081600660006101000a81548173ffffffffffffffffffffffffffffffffffffffff021916908373ffffffffffffffffffffffffffffffffffffffff1602179055508173ffffffffffffffffffffffffffffffffffffffff168173ffffffffffffffffffffffffffffffffffffffff167f8be0079c531659141344cd1fd0a4f28419497f9722a3daafe3b4186f6b6457e060405160405180910390a35050565b8173ffffffffffffffffffffffffffffffffffffffff168373ffffffffffffffffffffffffffffffffffffffff16036114b3576040517f08c379a00000000000000000000000000000000000000000000000000000000081526004016114aa90612e32565b60405180910390fd5b80600560008573ffffffffffffffffffffffffffffffffffffffff1673ffffffffffffffffffffffffffffffffffffffff16815260200190815260200160002060008473ffffffffffffffffffffffffffffffffffffffff1673ffffffffffffffffffffffffffffffffffffffff16815260200190815260200160002060006101000a81548160ff0219169083151502179055508173ffffffffffffffffffffffffffffffffffffffff168373ffffffffffffffffffffffffffffffffffffffff167f17307eab39ab6107e8899845ad3d59bd9653f200f220920489ca2b5937696c31836040516115a49190611c10565b60405180910390a3505050565b6115bc848484610fcb565b6115c88484848461185f565b611607576040517f08c379a00000000000000000000000000000000000000000000000000000000081526004016115fe90612ec4565b60405180910390fd5b50505050565b606060405180602001604052806000815250905090565b606060006001611633846119e6565b01905060008167ffffffffffffffff81111561165257611651611f79565b5b6040519080825280601f01601f1916602001820160405280156116845781602001600182028036833780820191505090505b509050600082602001820190505b6001156116e7578080600190039150507f3031323334353637383961626364656600000000000000000000000000000000600a86061a8153600a85816116db576116da612ee4565b5b04945060008503611692575b819350505050919050565b60008073ffffffffffffffffffffffffffffffffffffffff16611714836112c4565b73ffffffffffffffffffffffffffffffffffffffff1614159050919050565b600181111561185357600073ffffffffffffffffffffffffffffffffffffffff168473ffffffffffffffffffffffffffffffffffffffff16146117c75780600360008673ffffffffffffffffffffffffffffffffffffffff1673ffffffffffffffffffffffffffffffffffffffff16815260200190815260200160002060008282546117bf9190612f42565b925050819055505b600073ffffffffffffffffffffffffffffffffffffffff168373ffffffffffffffffffffffffffffffffffffffff16146118525780600360008573ffffffffffffffffffffffffffffffffffffffff1673ffffffffffffffffffffffffffffffffffffffff168152602001908152602001600020600082825461184a9190612f76565b925050819055505b5b50505050565b50505050565b60006118808473ffffffffffffffffffffffffffffffffffffffff16611b39565b156119d9578373ffffffffffffffffffffffffffffffffffffffff1663150b7a026118a9610e75565b8786866040518563ffffffff1660e01b81526004016118cb9493929190612faa565b6020604051808303816000875af192505050801561190757506040513d601f19601f82011682018060405250810190611904919061300b565b60015b611989573d8060008114611937576040519150601f19603f3d011682016040523d82523d6000602084013e61193c565b606091505b506000815103611981576040517f08c379a000000000000000000000000000000000000000000000000000000000815260040161197890612ec4565b60405180910390fd5b805181602001fd5b63150b7a0260e01b7bffffffffffffffffffffffffffffffffffffffffffffffffffffffff1916817bffffffffffffffffffffffffffffffffffffffffffffffffffffffff1916149150506119de565b600190505b949350505050565b600080600090507a184f03e93ff9f4daa797ed6e38ed64bf6a1f0100000000000000008310611a44577a184f03e93ff9f4daa797ed6e38ed64bf6a1f0100000000000000008381611a3a57611a39612ee4565b5b0492506040810190505b6d04ee2d6d415b85acef81000000008310611a81576d04ee2d6d415b85acef81000000008381611a7757611a76612ee4565b5b0492506020810190505b662386f26fc100008310611ab057662386f26fc100008381611aa657611aa5612ee4565b5b0492506010810190505b6305f5e1008310611ad9576305f5e1008381611acf57611ace612ee4565b5b0492506008810190505b6127108310611afe576127108381611af457611af3612ee4565b5b0492506004810190505b60648310611b215760648381611b1757611b16612ee4565b5b0492506002810190505b600a8310611b30576001810190505b80915050919050565b6000808273ffffffffffffffffffffffffffffffffffffffff163b119050919050565b6000604051905090565b600080fd5b600080fd5b60007fffffffff0000000000000000000000000000000000000000000000000000000082169050919050565b611ba581611b70565b8114611bb057600080fd5b50565b600081359050611bc281611b9c565b92915050565b600060208284031215611bde57611bdd611b66565b5b6000611bec84828501611bb3565b91505092915050565b60008115159050919050565b611c0a81611bf5565b82525050565b6000602082019050611c256000830184611c01565b92915050565b600081519050919050565b600082825260208201905092915050565b60005b83811015611c65578082015181840152602081019050611c4a565b60008484015250505050565b6000601f19601f8301169050919050565b6000611c8d82611c2b565b611c978185611c36565b9350611ca7818560208601611c47565b611cb081611c71565b840191505092915050565b60006020820190508181036000830152611cd58184611c82565b905092915050565b6000819050919050565b611cf081611cdd565b8114611cfb57600080fd5b50565b600081359050611d0d81611ce7565b92915050565b600060208284031215611d2957611d28611b66565b5b6000611d3784828501611cfe565b91505092915050565b600073ffffffffffffffffffffffffffffffffffffffff82169050919050565b6000611d6b82611d40565b9050919050565b611d7b81611d60565b82525050565b6000602082019050611d966000830184611d72565b92915050565b611da581611d60565b8114611db057600080fd5b50565b600081359050611dc281611d9c565b92915050565b60008060408385031215611ddf57611dde611b66565b5b6000611ded85828601611db3565b9250506020611dfe85828601611cfe565b9150509250929050565b6000819050919050565b611e1b81611e08565b8114611e2657600080fd5b50565b600081359050611e3881611e12565b92915050565b60008060008060808587031215611e5857611e57611b66565b5b6000611e6687828801611db3565b9450506020611e7787828801611db3565b9350506040611e8887828801611cfe565b9250506060611e9987828801611e29565b91505092959194509250565b600081519050919050565b600082825260208201905092915050565b6000611ecc82611ea5565b611ed68185611eb0565b9350611ee6818560208601611c47565b611eef81611c71565b840191505092915050565b60006020820190508181036000830152611f148184611ec1565b905092915050565b600080600060608486031215611f3557611f34611b66565b5b6000611f4386828701611db3565b9350506020611f5486828701611db3565b9250506040611f6586828701611cfe565b9150509250925092565b600080fd5b600080fd5b7f4e487b7100000000000000000000000000000000000000000000000000000000600052604160045260246000fd5b611fb182611c71565b810181811067ffffffffffffffff82111715611fd057611fcf611f79565b5b80604052505050565b6000611fe3611b5c565b9050611fef8282611fa8565b919050565b600067ffffffffffffffff82111561200f5761200e611f79565b5b61201882611c71565b9050602081019050919050565b82818337600083830152505050565b600061204761204284611ff4565b611fd9565b90508281526020810184848401111561206357612062611f74565b5b61206e848285612025565b509392505050565b600082601f83011261208b5761208a611f6f565b5b813561209b848260208601612034565b91505092915050565b600080600080600060a086880312156120c0576120bf611b66565b5b600086013567ffffffffffffffff8111156120de576120dd611b6b565b5b6120ea88828901612076565b955050602086013567ffffffffffffffff81111561210b5761210a611b6b565b5b61211788828901612076565b945050604086013567ffffffffffffffff81111561213857612137611b6b565b5b61214488828901612076565b935050606086013567ffffffffffffffff81111561216557612164611b6b565b5b61217188828901612076565b925050608061218288828901611cfe565b9150509295509295909350565b6000602082840312156121a5576121a4611b66565b5b60006121b384828501611db3565b91505092915050565b6121c581611cdd565b82525050565b60006020820190506121e060008301846121bc565b92915050565b6121ef81611bf5565b81146121fa57600080fd5b50565b60008135905061220c816121e6565b92915050565b6000806040838503121561222957612228611b66565b5b600061223785828601611db3565b9250506020612248858286016121fd565b9150509250929050565b600067ffffffffffffffff82111561226d5761226c611f79565b5b61227682611c71565b9050602081019050919050565b600061229661229184612252565b611fd9565b9050828152602081018484840111156122b2576122b1611f74565b5b6122bd848285612025565b509392505050565b600082601f8301126122da576122d9611f6f565b5b81356122ea848260208601612283565b91505092915050565b6000806000806080858703121561230d5761230c611b66565b5b600061231b87828801611db3565b945050602061232c87828801611db3565b935050604061233d87828801611cfe565b925050606085013567ffffffffffffffff81111561235e5761235d611b6b565b5b61236a878288016122c5565b91505092959194509250565b6000806040838503121561238d5761238c611b66565b5b600061239b85828601611db3565b92505060206123ac85828601611db3565b9150509250929050565b7f4e487b7100000000000000000000000000000000000000000000000000000000600052602260045260246000fd5b600060028204905060018216806123fd57607f821691505b6020821081036124105761240f6123b6565b5b50919050565b7f4552433732313a20617070726f76616c20746f2063757272656e74206f776e6560008201527f7200000000000000000000000000000000000000000000000000000000000000602082015250565b6000612472602183611c36565b915061247d82612416565b604082019050919050565b600060208201905081810360008301526124a181612465565b9050919050565b7f4552433732313a20617070726f76652063616c6c6572206973206e6f7420746f60008201527f6b656e206f776e6572206f7220617070726f76656420666f7220616c6c000000602082015250565b6000612504603d83611c36565b915061250f826124a8565b604082019050919050565b60006020820190508181036000830152612533816124f7565b9050919050565b7f4552433732313a2063616c6c6572206973206e6f7420746f6b656e206f776e6560008201527f72206f7220617070726f76656400000000000000000000000000000000000000602082015250565b6000612596602d83611c36565b91506125a18261253a565b604082019050919050565b600060208201905081810360008301526125c581612589565b9050919050565b7f596f7520616c7265616479206861766520616e206163636f756e740000000000600082015250565b6000612602601b83611c36565b915061260d826125cc565b602082019050919050565b60006020820190508181036000830152612631816125f5565b9050919050565b7f66697273746e616d652063616e7420626520656d707479000000000000000000600082015250565b600061266e601783611c36565b915061267982612638565b602082019050919050565b6000602082019050818103600083015261269d81612661565b9050919050565b7f6c6173746e616d652063616e7420626520656d70747900000000000000000000600082015250565b60006126da601683611c36565b91506126e5826126a4565b602082019050919050565b60006020820190508181036000830152612709816126cd565b9050919050565b7f656d61696c2063616e7420626520656d70747900000000000000000000000000600082015250565b6000612746601383611c36565b915061275182612710565b602082019050919050565b6000602082019050818103600083015261277581612739565b9050919050565b7f636f756e7472792063616e7420626520656d7074790000000000000000000000600082015250565b60006127b2601583611c36565b91506127bd8261277c565b602082019050919050565b600060208201905081810360008301526127e1816127a5565b9050919050565b60008190508160005260206000209050919050565b60006020601f8301049050919050565b600082821b905092915050565b60006008830261284a7fffffffffffffffffffffffffffffffffffffffffffffffffffffffffffffffff8261280d565b612854868361280d565b95508019841693508086168417925050509392505050565b6000819050919050565b600061289161288c61288784611cdd565b61286c565b611cdd565b9050919050565b6000819050919050565b6128ab83612876565b6128bf6128b782612898565b84845461281a565b825550505050565b600090565b6128d46128c7565b6128df8184846128a2565b505050565b5b81811015612903576128f86000826128cc565b6001810190506128e5565b5050565b601f82111561294857612919816127e8565b612922846127fd565b81016020851015612931578190505b61294561293d856127fd565b8301826128e4565b50505b505050565b600082821c905092915050565b600061296b6000198460080261294d565b1980831691505092915050565b6000612984838361295a565b9150826002028217905092915050565b61299d82611c2b565b67ffffffffffffffff8111156129b6576129b5611f79565b5b6129c082546123e5565b6129cb828285612907565b600060209050601f8311600181146129fe57600084156129ec578287015190505b6129f68582612978565b865550612a5e565b601f198416612a0c866127e8565b60005b82811015612a3457848901518255600182019150602085019450602081019050612a0f565b86831015612a515784890151612a4d601f89168261295a565b8355505b6001600288020188555050505b505050505050565b7f4552433732313a20696e76616c696420746f6b656e2049440000000000000000600082015250565b6000612a9c601883611c36565b9150612aa782612a66565b602082019050919050565b60006020820190508181036000830152612acb81612a8f565b9050919050565b7f4552433732313a2061646472657373207a65726f206973206e6f74206120766160008201527f6c6964206f776e65720000000000000000000000000000000000000000000000602082015250565b6000612b2e602983611c36565b9150612b3982612ad2565b604082019050919050565b60006020820190508181036000830152612b5d81612b21565b9050919050565b600081905092915050565b6000612b7a82611c2b565b612b848185612b64565b9350612b94818560208601611c47565b80840191505092915050565b6000612bac8285612b6f565b9150612bb88284612b6f565b91508190509392505050565b7f4f776e61626c653a206e6577206f776e657220697320746865207a65726f206160008201527f6464726573730000000000000000000000000000000000000000000000000000602082015250565b6000612c20602683611c36565b9150612c2b82612bc4565b604082019050919050565b60006020820190508181036000830152612c4f81612c13565b9050919050565b7f4552433732313a207472616e736665722066726f6d20696e636f72726563742060008201527f6f776e6572000000000000000000000000000000000000000000000000000000602082015250565b6000612cb2602583611c36565b9150612cbd82612c56565b604082019050919050565b60006020820190508181036000830152612ce181612ca5565b9050919050565b7f4552433732313a207472616e7366657220746f20746865207a65726f2061646460008201527f7265737300000000000000000000000000000000000000000000000000000000602082015250565b6000612d44602483611c36565b9150612d4f82612ce8565b604082019050919050565b60006020820190508181036000830152612d7381612d37565b9050919050565b7f4f776e61626c653a2063616c6c6572206973206e6f7420746865206f776e6572600082015250565b6000612db0602083611c36565b9150612dbb82612d7a565b602082019050919050565b60006020820190508181036000830152612ddf81612da3565b9050919050565b7f4552433732313a20617070726f766520746f2063616c6c657200000000000000600082015250565b6000612e1c601983611c36565b9150612e2782612de6565b602082019050919050565b60006020820190508181036000830152612e4b81612e0f565b9050919050565b7f4552433732313a207472616e7366657220746f206e6f6e20455243373231526560008201527f63656976657220696d706c656d656e7465720000000000000000000000000000602082015250565b6000612eae603283611c36565b9150612eb982612e52565b604082019050919050565b60006020820190508181036000830152612edd81612ea1565b9050919050565b7f4e487b7100000000000000000000000000000000000000000000000000000000600052601260045260246000fd5b7f4e487b7100000000000000000000000000000000000000000000000000000000600052601160045260246000fd5b6000612f4d82611cdd565b9150612f5883611cdd565b9250828203905081811115612f7057612f6f612f13565b5b92915050565b6000612f8182611cdd565b9150612f8c83611cdd565b9250828201905080821115612fa457612fa3612f13565b5b92915050565b6000608082019050612fbf6000830187611d72565b612fcc6020830186611d72565b612fd960408301856121bc565b8181036060830152612feb8184611ec1565b905095945050505050565b60008151905061300581611b9c565b92915050565b60006020828403121561302157613020611b66565b5b600061302f84828501612ff6565b9150509291505056fea264697066735822122002ef7e7f6c4b83a03c3beea57edd8b0b8b3cbc3cc77b6c6f506f051cf186aa6a64736f6c63430008110033",
  "devdoc": {
    "kind": "dev",
    "methods": {
      "approve(address,uint256)": {
        "details": "See {IERC721-approve}."
      },
      "balanceOf(address)": {
        "details": "See {IERC721-balanceOf}."
      },
      "create(string,string,string,string,uint256)": {
        "params": {
          "_country": "User's country",
          "_dob": "User's date of birth stored as a timestamp",
          "_email": "User's email",
          "_firstname": "User's firstname",
          "_lastname": "User's lastname"
        }
      },
      "getApproved(uint256)": {
        "details": "See {IERC721-getApproved}."
      },
      "isApprovedForAll(address,address)": {
        "details": "See {IERC721-isApprovedForAll}."
      },
      "name()": {
        "details": "See {IERC721Metadata-name}."
      },
      "owner()": {
        "details": "Returns the address of the current owner."
      },
      "ownerOf(uint256)": {
        "details": "See {IERC721-ownerOf}."
      },
      "renounceOwnership()": {
        "details": "Leaves the contract without owner. It will not be possible to call `onlyOwner` functions anymore. Can only be called by the current owner. NOTE: Renouncing ownership will leave the contract without an owner, thereby removing any functionality that is only available to the owner."
      },
      "safeTransferFrom(address,address,uint256)": {
        "details": "See {IERC721-safeTransferFrom}."
      },
      "safeTransferFrom(address,address,uint256,bytes)": {
        "details": "See {IERC721-safeTransferFrom}."
      },
      "setApprovalForAll(address,bool)": {
        "details": "See {IERC721-setApprovalForAll}."
      },
      "supportsInterface(bytes4)": {
        "details": "See {IERC165-supportsInterface}."
      },
      "symbol()": {
        "details": "See {IERC721Metadata-symbol}."
      },
      "tokenURI(uint256)": {
        "details": "See {IERC721Metadata-tokenURI}."
      },
      "transferFrom(address,address,uint256)": {
        "details": "See {IERC721-transferFrom}."
      },
      "transferOwnership(address)": {
        "details": "Transfers ownership of the contract to a new account (`newOwner`). Can only be called by the current owner."
      }
    },
    "version": 1
  },
  "userdoc": {
    "kind": "user",
    "methods": {
      "create(string,string,string,string,uint256)": {
        "notice": "Create a user. Initialize all his information and emit a event"
      }
    },
    "version": 1
  },
  "storageLayout": {
    "storage": [
      {
        "astId": 138,
        "contract": "contracts/User.sol:User",
        "label": "_name",
        "offset": 0,
        "slot": "0",
        "type": "t_string_storage"
      },
      {
        "astId": 140,
        "contract": "contracts/User.sol:User",
        "label": "_symbol",
        "offset": 0,
        "slot": "1",
        "type": "t_string_storage"
      },
      {
        "astId": 144,
        "contract": "contracts/User.sol:User",
        "label": "_owners",
        "offset": 0,
        "slot": "2",
        "type": "t_mapping(t_uint256,t_address)"
      },
      {
        "astId": 148,
        "contract": "contracts/User.sol:User",
        "label": "_balances",
        "offset": 0,
        "slot": "3",
        "type": "t_mapping(t_address,t_uint256)"
      },
      {
        "astId": 152,
        "contract": "contracts/User.sol:User",
        "label": "_tokenApprovals",
        "offset": 0,
        "slot": "4",
        "type": "t_mapping(t_uint256,t_address)"
      },
      {
        "astId": 158,
        "contract": "contracts/User.sol:User",
        "label": "_operatorApprovals",
        "offset": 0,
        "slot": "5",
        "type": "t_mapping(t_address,t_mapping(t_address,t_bool))"
      },
      {
        "astId": 7,
        "contract": "contracts/User.sol:User",
        "label": "_owner",
        "offset": 0,
        "slot": "6",
        "type": "t_address"
      },
      {
        "astId": 3183,
        "contract": "contracts/User.sol:User",
        "label": "participant",
        "offset": 0,
        "slot": "7",
        "type": "t_struct(Participant)3180_storage"
      },
      {
        "astId": 3186,
        "contract": "contracts/User.sol:User",
        "label": "tokenIds",
        "offset": 0,
        "slot": "13",
        "type": "t_array(t_uint256)dyn_storage"
      }
    ],
    "types": {
      "t_address": {
        "encoding": "inplace",
        "label": "address",
        "numberOfBytes": "20"
      },
      "t_array(t_uint256)dyn_storage": {
        "base": "t_uint256",
        "encoding": "dynamic_array",
        "label": "uint256[]",
        "numberOfBytes": "32"
      },
      "t_bool": {
        "encoding": "inplace",
        "label": "bool",
        "numberOfBytes": "1"
      },
      "t_mapping(t_address,t_bool)": {
        "encoding": "mapping",
        "key": "t_address",
        "label": "mapping(address => bool)",
        "numberOfBytes": "32",
        "value": "t_bool"
      },
      "t_mapping(t_address,t_mapping(t_address,t_bool))": {
        "encoding": "mapping",
        "key": "t_address",
        "label": "mapping(address => mapping(address => bool))",
        "numberOfBytes": "32",
        "value": "t_mapping(t_address,t_bool)"
      },
      "t_mapping(t_address,t_uint256)": {
        "encoding": "mapping",
        "key": "t_address",
        "label": "mapping(address => uint256)",
        "numberOfBytes": "32",
        "value": "t_uint256"
      },
      "t_mapping(t_uint256,t_address)": {
        "encoding": "mapping",
        "key": "t_uint256",
        "label": "mapping(uint256 => address)",
        "numberOfBytes": "32",
        "value": "t_address"
      },
      "t_string_storage": {
        "encoding": "bytes",
        "label": "string",
        "numberOfBytes": "32"
      },
      "t_struct(Participant)3180_storage": {
        "encoding": "inplace",
        "label": "struct User.Participant",
        "members": [
          {
            "astId": 3169,
            "contract": "contracts/User.sol:User",
            "label": "userAddress",
            "offset": 0,
            "slot": "0",
            "type": "t_address"
          },
          {
            "astId": 3171,
            "contract": "contracts/User.sol:User",
            "label": "firstname",
            "offset": 0,
            "slot": "1",
            "type": "t_string_storage"
          },
          {
            "astId": 3173,
            "contract": "contracts/User.sol:User",
            "label": "lastname",
            "offset": 0,
            "slot": "2",
            "type": "t_string_storage"
          },
          {
            "astId": 3175,
            "contract": "contracts/User.sol:User",
            "label": "email",
            "offset": 0,
            "slot": "3",
            "type": "t_string_storage"
          },
          {
            "astId": 3177,
            "contract": "contracts/User.sol:User",
            "label": "country",
            "offset": 0,
            "slot": "4",
            "type": "t_string_storage"
          },
          {
            "astId": 3179,
            "contract": "contracts/User.sol:User",
            "label": "dob",
            "offset": 0,
            "slot": "5",
            "type": "t_uint256"
          }
        ],
        "numberOfBytes": "192"
      },
      "t_uint256": {
        "encoding": "inplace",
        "label": "uint256",
        "numberOfBytes": "32"
      }
    }
  }
}