{
  "_format": "hh-sol-artifact-1",
  "contractName": "Fight",
  "sourceName": "contracts/Fight.sol",
  "abi": [
    {
      "inputs": [
        {
          "internalType": "address",
          "name": "_owner",
          "type": "address"
        }
      ],
      "stateMutability": "nonpayable",
      "type": "constructor"
    },
    {
      "anonymous": false,
      "inputs": [
        {
          "indexed": true,
          "internalType": "address",
          "name": "adminAddress",
          "type": "address"
        }
      ],
      "name": "AdminAdded",
      "type": "event"
    },
    {
      "anonymous": false,
      "inputs": [
        {
          "indexed": true,
          "internalType": "address",
          "name": "owner",
          "type": "address"
        },
        {
          "indexed": true,
          "internalType": "address",
          "name": "approved",
          "type": "address"
        },
        {
          "indexed": true,
          "internalType": "uint256",
          "name": "tokenId",
          "type": "uint256"
        }
      ],
      "name": "Approval",
      "type": "event"
    },
    {
      "anonymous": false,
      "inputs": [
        {
          "indexed": true,
          "internalType": "address",
          "name": "owner",
          "type": "address"
        },
        {
          "indexed": true,
          "internalType": "address",
          "name": "operator",
          "type": "address"
        },
        {
          "indexed": false,
          "internalType": "bool",
          "name": "approved",
          "type": "bool"
        }
      ],
      "name": "ApprovalForAll",
      "type": "event"
    },
    {
      "anonymous": false,
      "inputs": [
        {
          "indexed": true,
          "internalType": "uint256",
          "name": "fightId",
          "type": "uint256"
        },
        {
          "indexed": true,
          "internalType": "address",
          "name": "adminAddress",
          "type": "address"
        },
        {
          "indexed": false,
          "internalType": "string",
          "name": "fighterOne",
          "type": "string"
        },
        {
          "indexed": false,
          "internalType": "string",
          "name": "fighterTwo",
          "type": "string"
        },
        {
          "indexed": false,
          "internalType": "string",
          "name": "arena",
          "type": "string"
        },
        {
          "indexed": false,
          "internalType": "string",
          "name": "location",
          "type": "string"
        },
        {
          "indexed": false,
          "internalType": "bool",
          "name": "fightType",
          "type": "bool"
        },
        {
          "indexed": false,
          "internalType": "string",
          "name": "fileLink",
          "type": "string"
        },
        {
          "indexed": false,
          "internalType": "string",
          "name": "fileCID",
          "type": "string"
        }
      ],
      "name": "FightCreated",
      "type": "event"
    },
    {
      "anonymous": false,
      "inputs": [
        {
          "indexed": true,
          "internalType": "address",
          "name": "previousOwner",
          "type": "address"
        },
        {
          "indexed": true,
          "internalType": "address",
          "name": "newOwner",
          "type": "address"
        }
      ],
      "name": "OwnershipTransferred",
      "type": "event"
    },
    {
      "anonymous": false,
      "inputs": [
        {
          "indexed": true,
          "internalType": "address",
          "name": "from",
          "type": "address"
        },
        {
          "indexed": true,
          "internalType": "address",
          "name": "to",
          "type": "address"
        },
        {
          "indexed": true,
          "internalType": "uint256",
          "name": "tokenId",
          "type": "uint256"
        }
      ],
      "name": "Transfer",
      "type": "event"
    },
    {
      "anonymous": false,
      "inputs": [
        {
          "indexed": true,
          "internalType": "uint256",
          "name": "fightId",
          "type": "uint256"
        },
        {
          "indexed": false,
          "internalType": "uint256",
          "name": "fightTicketId",
          "type": "uint256"
        },
        {
          "indexed": true,
          "internalType": "address",
          "name": "userAddress",
          "type": "address"
        }
      ],
      "name": "UserHasJoinedAFight",
      "type": "event"
    },
    {
      "anonymous": false,
      "inputs": [
        {
          "indexed": false,
          "internalType": "uint256",
          "name": "amount",
          "type": "uint256"
        },
        {
          "indexed": false,
          "internalType": "address",
          "name": "to",
          "type": "address"
        }
      ],
      "name": "Withdrawal",
      "type": "event"
    },
    {
      "inputs": [],
      "name": "MAX_SUPPLY",
      "outputs": [
        {
          "internalType": "uint256",
          "name": "",
          "type": "uint256"
        }
      ],
      "stateMutability": "view",
      "type": "function"
    },
    {
      "inputs": [
        {
          "internalType": "address",
          "name": "_adminAddress",
          "type": "address"
        }
      ],
      "name": "addAdmin",
      "outputs": [],
      "stateMutability": "nonpayable",
      "type": "function"
    },
    {
      "inputs": [
        {
          "internalType": "address",
          "name": "to",
          "type": "address"
        },
        {
          "internalType": "uint256",
          "name": "tokenId",
          "type": "uint256"
        }
      ],
      "name": "approve",
      "outputs": [],
      "stateMutability": "nonpayable",
      "type": "function"
    },
    {
      "inputs": [
        {
          "internalType": "address",
          "name": "owner",
          "type": "address"
        }
      ],
      "name": "balanceOf",
      "outputs": [
        {
          "internalType": "uint256",
          "name": "",
          "type": "uint256"
        }
      ],
      "stateMutability": "view",
      "type": "function"
    },
    {
      "inputs": [],
      "name": "collectionName",
      "outputs": [
        {
          "internalType": "string",
          "name": "",
          "type": "string"
        }
      ],
      "stateMutability": "view",
      "type": "function"
    },
    {
      "inputs": [],
      "name": "collectionSymbol",
      "outputs": [
        {
          "internalType": "string",
          "name": "",
          "type": "string"
        }
      ],
      "stateMutability": "view",
      "type": "function"
    },
    {
      "inputs": [
        {
          "internalType": "string",
          "name": "_fighterOne",
          "type": "string"
        },
        {
          "internalType": "string",
          "name": "_fighterTwo",
          "type": "string"
        },
        {
          "internalType": "string",
          "name": "_arena",
          "type": "string"
        },
        {
          "internalType": "string",
          "name": "_location",
          "type": "string"
        },
        {
          "internalType": "bool",
          "name": "_fightType",
          "type": "bool"
        },
        {
          "internalType": "string",
          "name": "_fileLink",
          "type": "string"
        },
        {
          "internalType": "string",
          "name": "_fileCID",
          "type": "string"
        }
      ],
      "name": "createFight",
      "outputs": [],
      "stateMutability": "nonpayable",
      "type": "function"
    },
    {
      "inputs": [
        {
          "internalType": "uint256",
          "name": "tokenId",
          "type": "uint256"
        }
      ],
      "name": "getApproved",
      "outputs": [
        {
          "internalType": "address",
          "name": "",
          "type": "address"
        }
      ],
      "stateMutability": "view",
      "type": "function"
    },
    {
      "inputs": [
        {
          "internalType": "address",
          "name": "owner",
          "type": "address"
        },
        {
          "internalType": "address",
          "name": "operator",
          "type": "address"
        }
      ],
      "name": "isApprovedForAll",
      "outputs": [
        {
          "internalType": "bool",
          "name": "",
          "type": "bool"
        }
      ],
      "stateMutability": "view",
      "type": "function"
    },
    {
      "inputs": [],
      "name": "name",
      "outputs": [
        {
          "internalType": "string",
          "name": "",
          "type": "string"
        }
      ],
      "stateMutability": "view",
      "type": "function"
    },
    {
      "inputs": [],
      "name": "owner",
      "outputs": [
        {
          "internalType": "address",
          "name": "",
          "type": "address"
        }
      ],
      "stateMutability": "view",
      "type": "function"
    },
    {
      "inputs": [
        {
          "internalType": "uint256",
          "name": "tokenId",
          "type": "uint256"
        }
      ],
      "name": "ownerOf",
      "outputs": [
        {
          "internalType": "address",
          "name": "",
          "type": "address"
        }
      ],
      "stateMutability": "view",
      "type": "function"
    },
    {
      "inputs": [],
      "name": "renounceOwnership",
      "outputs": [],
      "stateMutability": "nonpayable",
      "type": "function"
    },
    {
      "inputs": [
        {
          "internalType": "uint256",
          "name": "_fightId",
          "type": "uint256"
        },
        {
          "internalType": "address",
          "name": "_to",
          "type": "address"
        },
        {
          "internalType": "string",
          "name": "metadataCID",
          "type": "string"
        }
      ],
      "name": "safeMint",
      "outputs": [],
      "stateMutability": "nonpayable",
      "type": "function"
    },
    {
      "inputs": [
        {
          "internalType": "address",
          "name": "from",
          "type": "address"
        },
        {
          "internalType": "address",
          "name": "to",
          "type": "address"
        },
        {
          "internalType": "uint256",
          "name": "tokenId",
          "type": "uint256"
        }
      ],
      "name": "safeTransferFrom",
      "outputs": [],
      "stateMutability": "nonpayable",
      "type": "function"
    },
    {
      "inputs": [
        {
          "internalType": "address",
          "name": "from",
          "type": "address"
        },
        {
          "internalType": "address",
          "name": "to",
          "type": "address"
        },
        {
          "internalType": "uint256",
          "name": "tokenId",
          "type": "uint256"
        },
        {
          "internalType": "bytes",
          "name": "data",
          "type": "bytes"
        }
      ],
      "name": "safeTransferFrom",
      "outputs": [],
      "stateMutability": "nonpayable",
      "type": "function"
    },
    {
      "inputs": [
        {
          "internalType": "address",
          "name": "operator",
          "type": "address"
        },
        {
          "internalType": "bool",
          "name": "approved",
          "type": "bool"
        }
      ],
      "name": "setApprovalForAll",
      "outputs": [],
      "stateMutability": "nonpayable",
      "type": "function"
    },
    {
      "inputs": [
        {
          "internalType": "bytes4",
          "name": "interfaceId",
          "type": "bytes4"
        }
      ],
      "name": "supportsInterface",
      "outputs": [
        {
          "internalType": "bool",
          "name": "",
          "type": "bool"
        }
      ],
      "stateMutability": "view",
      "type": "function"
    },
    {
      "inputs": [],
      "name": "symbol",
      "outputs": [
        {
          "internalType": "string",
          "name": "",
          "type": "string"
        }
      ],
      "stateMutability": "view",
      "type": "function"
    },
    {
      "inputs": [
        {
          "internalType": "uint256",
          "name": "_tokenId",
          "type": "uint256"
        }
      ],
      "name": "tokenURI",
      "outputs": [
        {
          "internalType": "string",
          "name": "",
          "type": "string"
        }
      ],
      "stateMutability": "view",
      "type": "function"
    },
    {
      "inputs": [
        {
          "internalType": "address",
          "name": "from",
          "type": "address"
        },
        {
          "internalType": "address",
          "name": "to",
          "type": "address"
        },
        {
          "internalType": "uint256",
          "name": "tokenId",
          "type": "uint256"
        }
      ],
      "name": "transferFrom",
      "outputs": [],
      "stateMutability": "nonpayable",
      "type": "function"
    },
    {
      "inputs": [
        {
          "internalType": "address",
          "name": "newOwner",
          "type": "address"
        }
      ],
      "name": "transferOwnership",
      "outputs": [],
      "stateMutability": "nonpayable",
      "type": "function"
    },
    {
      "inputs": [
        {
          "internalType": "uint256",
          "name": "_fightId",
          "type": "uint256"
        },
        {
          "internalType": "address",
          "name": "_userAddress",
          "type": "address"
        }
      ],
      "name": "userJoinAFightAsJudgeEnthusiast",
      "outputs": [],
      "stateMutability": "payable",
      "type": "function"
    },
    {
      "inputs": [],
      "name": "withdraw",
      "outputs": [],
      "stateMutability": "nonpayable",
      "type": "function"
    }
  ],
  "bytecode": "0x60806040523480156200001157600080fd5b506040516200586638038062005866833981810160405281019062000037919062000563565b6040518060400160405280600e81526020017f5546434a756467655265776172640000000000000000000000000000000000008152506040518060400160405280600581526020017f5546434a520000000000000000000000000000000000000000000000000000008152508160009081620000b491906200080f565b508060019081620000c691906200080f565b505050620000e9620000dd620001a660201b60201c565b620001ae60201b60201c565b80600b60006101000a81548173ffffffffffffffffffffffffffffffffffffffff021916908373ffffffffffffffffffffffffffffffffffffffff1602179055506200015d600b60009054906101000a900473ffffffffffffffffffffffffffffffffffffffff166200027460201b60201c565b6200016d6200030a60201b60201c565b600c90816200017d91906200080f565b506200018e620003a460201b60201c565b600d90816200019e91906200080f565b505062000a11565b600033905090565b6000600760009054906101000a900473ffffffffffffffffffffffffffffffffffffffff16905081600760006101000a81548173ffffffffffffffffffffffffffffffffffffffff021916908373ffffffffffffffffffffffffffffffffffffffff1602179055508173ffffffffffffffffffffffffffffffffffffffff168173ffffffffffffffffffffffffffffffffffffffff167f8be0079c531659141344cd1fd0a4f28419497f9722a3daafe3b4186f6b6457e060405160405180910390a35050565b620002846200043e60201b60201c565b600073ffffffffffffffffffffffffffffffffffffffff168173ffffffffffffffffffffffffffffffffffffffff1603620002f6576040517f08c379a0000000000000000000000000000000000000000000000000000000008152600401620002ed906200097d565b60405180910390fd5b6200030781620001ae60201b60201c565b50565b6060600080546200031b90620005fe565b80601f01602080910402602001604051908101604052809291908181526020018280546200034990620005fe565b80156200039a5780601f106200036e576101008083540402835291602001916200039a565b820191906000526020600020905b8154815290600101906020018083116200037c57829003601f168201915b5050505050905090565b606060018054620003b590620005fe565b80601f0160208091040260200160405190810160405280929190818152602001828054620003e390620005fe565b8015620004345780601f10620004085761010080835404028352916020019162000434565b820191906000526020600020905b8154815290600101906020018083116200041657829003601f168201915b5050505050905090565b6200044e620001a660201b60201c565b73ffffffffffffffffffffffffffffffffffffffff1662000474620004cf60201b60201c565b73ffffffffffffffffffffffffffffffffffffffff1614620004cd576040517f08c379a0000000000000000000000000000000000000000000000000000000008152600401620004c490620009ef565b60405180910390fd5b565b6000600760009054906101000a900473ffffffffffffffffffffffffffffffffffffffff16905090565b600080fd5b600073ffffffffffffffffffffffffffffffffffffffff82169050919050565b60006200052b82620004fe565b9050919050565b6200053d816200051e565b81146200054957600080fd5b50565b6000815190506200055d8162000532565b92915050565b6000602082840312156200057c576200057b620004f9565b5b60006200058c848285016200054c565b91505092915050565b600081519050919050565b7f4e487b7100000000000000000000000000000000000000000000000000000000600052604160045260246000fd5b7f4e487b7100000000000000000000000000000000000000000000000000000000600052602260045260246000fd5b600060028204905060018216806200061757607f821691505b6020821081036200062d576200062c620005cf565b5b50919050565b60008190508160005260206000209050919050565b60006020601f8301049050919050565b600082821b905092915050565b600060088302620006977fffffffffffffffffffffffffffffffffffffffffffffffffffffffffffffffff8262000658565b620006a3868362000658565b95508019841693508086168417925050509392505050565b6000819050919050565b6000819050919050565b6000620006f0620006ea620006e484620006bb565b620006c5565b620006bb565b9050919050565b6000819050919050565b6200070c83620006cf565b620007246200071b82620006f7565b84845462000665565b825550505050565b600090565b6200073b6200072c565b6200074881848462000701565b505050565b5b8181101562000770576200076460008262000731565b6001810190506200074e565b5050565b601f821115620007bf57620007898162000633565b620007948462000648565b81016020851015620007a4578190505b620007bc620007b38562000648565b8301826200074d565b50505b505050565b600082821c905092915050565b6000620007e460001984600802620007c4565b1980831691505092915050565b6000620007ff8383620007d1565b9150826002028217905092915050565b6200081a8262000595565b67ffffffffffffffff811115620008365762000835620005a0565b5b620008428254620005fe565b6200084f82828562000774565b600060209050601f83116001811462000887576000841562000872578287015190505b6200087e8582620007f1565b865550620008ee565b601f198416620008978662000633565b60005b82811015620008c1578489015182556001820191506020850194506020810190506200089a565b86831015620008e15784890151620008dd601f891682620007d1565b8355505b6001600288020188555050505b505050505050565b600082825260208201905092915050565b7f4f776e61626c653a206e6577206f776e657220697320746865207a65726f206160008201527f6464726573730000000000000000000000000000000000000000000000000000602082015250565b600062000965602683620008f6565b9150620009728262000907565b604082019050919050565b60006020820190508181036000830152620009988162000956565b9050919050565b7f4f776e61626c653a2063616c6c6572206973206e6f7420746865206f776e6572600082015250565b6000620009d7602083620008f6565b9150620009e4826200099f565b602082019050919050565b6000602082019050818103600083015262000a0a81620009c8565b9050919050565b614e458062000a216000396000f3fe60806040526004361061014b5760003560e01c8063715018a6116100b6578063c87b56dd1161006f578063c87b56dd14610468578063e5326ab1146104a5578063e985e9c5146104d0578063f2fde38b1461050d578063f626cf2c14610536578063ffe483a21461055f5761014b565b8063715018a6146103805780638da5cb5b1461039757806395d89b41146103c2578063a22cb465146103ed578063b88d4fde14610416578063bb77d7771461043f5761014b565b806332cb6b0c1161010857806332cb6b0c146102725780633ccfd60b1461029d57806342842e0e146102b45780636352211e146102dd578063704802751461031a57806370a08231146103435761014b565b806301ffc9a71461015057806306fdde031461018d578063081812fc146101b8578063095ea7b3146101f557806323b872dd1461021e5780632f39352a14610247575b600080fd5b34801561015c57600080fd5b5061017760048036038101906101729190612fc1565b61057b565b6040516101849190613009565b60405180910390f35b34801561019957600080fd5b506101a261065d565b6040516101af91906130b4565b60405180910390f35b3480156101c457600080fd5b506101df60048036038101906101da919061310c565b6106ef565b6040516101ec919061317a565b60405180910390f35b34801561020157600080fd5b5061021c600480360381019061021791906131c1565b610735565b005b34801561022a57600080fd5b5061024560048036038101906102409190613201565b61084c565b005b34801561025357600080fd5b5061025c6108ac565b60405161026991906130b4565b60405180910390f35b34801561027e57600080fd5b5061028761093a565b6040516102949190613263565b60405180910390f35b3480156102a957600080fd5b506102b261093f565b005b3480156102c057600080fd5b506102db60048036038101906102d69190613201565b610b44565b005b3480156102e957600080fd5b5061030460048036038101906102ff919061310c565b610b64565b604051610311919061317a565b60405180910390f35b34801561032657600080fd5b50610341600480360381019061033c919061327e565b610bea565b005b34801561034f57600080fd5b5061036a6004803603810190610365919061327e565b610e3b565b6040516103779190613263565b60405180910390f35b34801561038c57600080fd5b50610395610ef2565b005b3480156103a357600080fd5b506103ac610f06565b6040516103b9919061317a565b60405180910390f35b3480156103ce57600080fd5b506103d7610f30565b6040516103e491906130b4565b60405180910390f35b3480156103f957600080fd5b50610414600480360381019061040f91906132d7565b610fc2565b005b34801561042257600080fd5b5061043d6004803603810190610438919061344c565b610fd8565b005b34801561044b57600080fd5b5061046660048036038101906104619190613570565b61103a565b005b34801561047457600080fd5b5061048f600480360381019061048a919061310c565b61142c565b60405161049c91906130b4565b60405180910390f35b3480156104b157600080fd5b506104ba611489565b6040516104c791906130b4565b60405180910390f35b3480156104dc57600080fd5b506104f760048036038101906104f291906136ba565b611517565b6040516105049190613009565b60405180910390f35b34801561051957600080fd5b50610534600480360381019061052f919061327e565b6115ab565b005b34801561054257600080fd5b5061055d600480360381019061055891906136fa565b61162e565b005b61057960048036038101906105749190613769565b61183c565b005b60007f80ac58cd000000000000000000000000000000000000000000000000000000007bffffffffffffffffffffffffffffffffffffffffffffffffffffffff1916827bffffffffffffffffffffffffffffffffffffffffffffffffffffffff1916148061064657507f5b5e139f000000000000000000000000000000000000000000000000000000007bffffffffffffffffffffffffffffffffffffffffffffffffffffffff1916827bffffffffffffffffffffffffffffffffffffffffffffffffffffffff1916145b80610656575061065582611c80565b5b9050919050565b60606000805461066c906137d8565b80601f0160208091040260200160405190810160405280929190818152602001828054610698906137d8565b80156106e55780601f106106ba576101008083540402835291602001916106e5565b820191906000526020600020905b8154815290600101906020018083116106c857829003601f168201915b5050505050905090565b60006106fa82611cea565b6004600083815260200190815260200160002060009054906101000a900473ffffffffffffffffffffffffffffffffffffffff169050919050565b600061074082610b64565b90508073ffffffffffffffffffffffffffffffffffffffff168373ffffffffffffffffffffffffffffffffffffffff16036107b0576040517f08c379a00000000000000000000000000000000000000000000000000000000081526004016107a79061387b565b60405180910390fd5b8073ffffffffffffffffffffffffffffffffffffffff166107cf611d35565b73ffffffffffffffffffffffffffffffffffffffff1614806107fe57506107fd816107f8611d35565b611517565b5b61083d576040517f08c379a00000000000000000000000000000000000000000000000000000000081526004016108349061390d565b60405180910390fd5b6108478383611d3d565b505050565b61085d610857611d35565b82611df6565b61089c576040517f08c379a00000000000000000000000000000000000000000000000000000000081526004016108939061399f565b60405180910390fd5b6108a7838383611e8b565b505050565b600d80546108b9906137d8565b80601f01602080910402602001604051908101604052809291908181526020018280546108e5906137d8565b80156109325780601f1061090757610100808354040283529160200191610932565b820191906000526020600020905b81548152906001019060200180831161091557829003601f168201915b505050505081565b600181565b3373ffffffffffffffffffffffffffffffffffffffff16600b60009054906101000a900473ffffffffffffffffffffffffffffffffffffffff1673ffffffffffffffffffffffffffffffffffffffff16146109cf576040517f08c379a00000000000000000000000000000000000000000000000000000000081526004016109c690613a0b565b60405180910390fd5b600047905060008111610a17576040517f08c379a0000000000000000000000000000000000000000000000000000000008152600401610a0e90613a9d565b60405180910390fd5b6000600b60009054906101000a900473ffffffffffffffffffffffffffffffffffffffff1673ffffffffffffffffffffffffffffffffffffffff1682604051610a5f90613aee565b60006040518083038185875af1925050503d8060008114610a9c576040519150601f19603f3d011682016040523d82523d6000602084013e610aa1565b606091505b5050905080610ae5576040517f08c379a0000000000000000000000000000000000000000000000000000000008152600401610adc90613b4f565b60405180910390fd5b7fd964a27d45f595739c13d8b1160b57491050cacf3a2e5602207277d6228f64ee82600b60009054906101000a900473ffffffffffffffffffffffffffffffffffffffff16604051610b38929190613b6f565b60405180910390a15050565b610b5f83838360405180602001604052806000815250610fd8565b505050565b600080610b7083612184565b9050600073ffffffffffffffffffffffffffffffffffffffff168173ffffffffffffffffffffffffffffffffffffffff1603610be1576040517f08c379a0000000000000000000000000000000000000000000000000000000008152600401610bd890613be4565b60405180910390fd5b80915050919050565b3373ffffffffffffffffffffffffffffffffffffffff16600b60009054906101000a900473ffffffffffffffffffffffffffffffffffffffff1673ffffffffffffffffffffffffffffffffffffffff1614610c7a576040517f08c379a0000000000000000000000000000000000000000000000000000000008152600401610c7190613a0b565b60405180910390fd5b60001515601060008373ffffffffffffffffffffffffffffffffffffffff1673ffffffffffffffffffffffffffffffffffffffff16815260200190815260200160002060009054906101000a900460ff16151514610d0d576040517f08c379a0000000000000000000000000000000000000000000000000000000008152600401610d0490613c76565b60405180910390fd5b600b60009054906101000a900473ffffffffffffffffffffffffffffffffffffffff1673ffffffffffffffffffffffffffffffffffffffff168173ffffffffffffffffffffffffffffffffffffffff1603610d9d576040517f08c379a0000000000000000000000000000000000000000000000000000000008152600401610d9490613ce2565b60405180910390fd5b6001601060008373ffffffffffffffffffffffffffffffffffffffff1673ffffffffffffffffffffffffffffffffffffffff16815260200190815260200160002060006101000a81548160ff0219169083151502179055508073ffffffffffffffffffffffffffffffffffffffff167f44d6d25963f097ad14f29f06854a01f575648a1ef82f30e562ccd3889717e33960405160405180910390a250565b60008073ffffffffffffffffffffffffffffffffffffffff168273ffffffffffffffffffffffffffffffffffffffff1603610eab576040517f08c379a0000000000000000000000000000000000000000000000000000000008152600401610ea290613d74565b60405180910390fd5b600360008373ffffffffffffffffffffffffffffffffffffffff1673ffffffffffffffffffffffffffffffffffffffff168152602001908152602001600020549050919050565b610efa6121c1565b610f04600061223f565b565b6000600760009054906101000a900473ffffffffffffffffffffffffffffffffffffffff16905090565b606060018054610f3f906137d8565b80601f0160208091040260200160405190810160405280929190818152602001828054610f6b906137d8565b8015610fb85780601f10610f8d57610100808354040283529160200191610fb8565b820191906000526020600020905b815481529060010190602001808311610f9b57829003601f168201915b5050505050905090565b610fd4610fcd611d35565b8383612305565b5050565b610fe9610fe3611d35565b83611df6565b611028576040517f08c379a000000000000000000000000000000000000000000000000000000000815260040161101f9061399f565b60405180910390fd5b61103484848484612471565b50505050565b60011515601060003373ffffffffffffffffffffffffffffffffffffffff1673ffffffffffffffffffffffffffffffffffffffff16815260200190815260200160002060009054906101000a900460ff161515146110cd576040517f08c379a00000000000000000000000000000000000000000000000000000000081526004016110c490613de0565b60405180910390fd5b6000875103611111576040517f08c379a000000000000000000000000000000000000000000000000000000000815260040161110890613e4c565b60405180910390fd5b6000865103611155576040517f08c379a000000000000000000000000000000000000000000000000000000000815260040161114c90613eb8565b60405180910390fd5b6000855103611199576040517f08c379a000000000000000000000000000000000000000000000000000000000815260040161119090613f24565b60405180910390fd5b60008451036111dd576040517f08c379a00000000000000000000000000000000000000000000000000000000081526004016111d490613f90565b60405180910390fd5b6000825103611221576040517f08c379a000000000000000000000000000000000000000000000000000000000815260040161121890613ffc565b60405180910390fd5b6000815103611265576040517f08c379a000000000000000000000000000000000000000000000000000000000815260040161125c90614068565b60405180910390fd5b600061127160096124cd565b905061127d60096124db565b611285612ebd565b81816000018181525050888160800181905250878160a00181905250846112ad5760036112b0565b60055b60ff16816040018181525050600e8190806001815401808255809150506001900390600052602060002090600702016000909190919091506000820151816000015560208201518160010155604082015181600201556060820151816003015560808201518160040190816113259190614234565b5060a082015181600501908161133b9190614234565b5060c08201518160060160006101000a81548173ffffffffffffffffffffffffffffffffffffffff021916908373ffffffffffffffffffffffffffffffffffffffff16021790555060e08201518160060160146101000a81548160ff0219169083151502179055506101008201518160060160156101000a81548160ff02191690831515021790555050503373ffffffffffffffffffffffffffffffffffffffff16827fceb0509799a6a62b3e5e62df14cc3511c9e6af177eefe5dfa03048aa98b084718b8b8b8b8b8b8b6040516114199796959493929190614306565b60405180910390a3505050505050505050565b60608161143960086124cd565b11611479576040517f08c379a0000000000000000000000000000000000000000000000000000000008152600401611470906143eb565b60405180910390fd5b611482826124f1565b9050919050565b600c8054611496906137d8565b80601f01602080910402602001604051908101604052809291908181526020018280546114c2906137d8565b801561150f5780601f106114e45761010080835404028352916020019161150f565b820191906000526020600020905b8154815290600101906020018083116114f257829003601f168201915b505050505081565b6000600560008473ffffffffffffffffffffffffffffffffffffffff1673ffffffffffffffffffffffffffffffffffffffff16815260200190815260200160002060008373ffffffffffffffffffffffffffffffffffffffff1673ffffffffffffffffffffffffffffffffffffffff16815260200190815260200160002060009054906101000a900460ff16905092915050565b6115b36121c1565b600073ffffffffffffffffffffffffffffffffffffffff168173ffffffffffffffffffffffffffffffffffffffff1603611622576040517f08c379a00000000000000000000000000000000000000000000000000000000081526004016116199061447d565b60405180910390fd5b61162b8161223f565b50565b60011515601060003373ffffffffffffffffffffffffffffffffffffffff1673ffffffffffffffffffffffffffffffffffffffff16815260200190815260200160002060009054906101000a900460ff161515146116c1576040517f08c379a00000000000000000000000000000000000000000000000000000000081526004016116b890613de0565b60405180910390fd5b600e805490508310611708576040517f08c379a00000000000000000000000000000000000000000000000000000000081526004016116ff906144e9565b60405180910390fd5b60001515600e84815481106117205761171f614509565b5b906000526020600020906007020160060160159054906101000a900460ff16151514611781576040517f08c379a0000000000000000000000000000000000000000000000000000000008152600401611778906145aa565b60405180910390fd5b6001600e848154811061179757611796614509565b5b906000526020600020906007020160060160156101000a81548160ff02191690831515021790555060006117cb60086124cd565b90506117d760086124db565b81600a600083815260200190815260200160002090816117f79190614234565b5080600e858154811061180d5761180c614509565b5b90600052602060002090600702016001018190555061182c8382612603565b6118368183612621565b50505050565b3373ffffffffffffffffffffffffffffffffffffffff16600b60009054906101000a900473ffffffffffffffffffffffffffffffffffffffff1673ffffffffffffffffffffffffffffffffffffffff16036118cc576040517f08c379a00000000000000000000000000000000000000000000000000000000081526004016118c39061463c565b60405180910390fd5b60001515601060003373ffffffffffffffffffffffffffffffffffffffff1673ffffffffffffffffffffffffffffffffffffffff16815260200190815260200160002060009054906101000a900460ff1615151461195f576040517f08c379a0000000000000000000000000000000000000000000000000000000008152600401611956906146ce565b60405180910390fd5b66ce0eb154f9000034116119a8576040517f08c379a000000000000000000000000000000000000000000000000000000000815260040161199f9061473a565b60405180910390fd5b600e8054905082106119ef576040517f08c379a00000000000000000000000000000000000000000000000000000000081526004016119e6906144e9565b60405180910390fd5b600073ffffffffffffffffffffffffffffffffffffffff16600f600084815260200190815260200160002060008373ffffffffffffffffffffffffffffffffffffffff1673ffffffffffffffffffffffffffffffffffffffff16815260200190815260200160002060000160009054906101000a900473ffffffffffffffffffffffffffffffffffffffff1673ffffffffffffffffffffffffffffffffffffffff1614611ad1576040517f08c379a0000000000000000000000000000000000000000000000000000000008152600401611ac8906147a6565b60405180910390fd5b611ad9612f23565b81816000019073ffffffffffffffffffffffffffffffffffffffff16908173ffffffffffffffffffffffffffffffffffffffff168152505080600f600085815260200190815260200160002060008473ffffffffffffffffffffffffffffffffffffffff1673ffffffffffffffffffffffffffffffffffffffff16815260200190815260200160002060008201518160000160006101000a81548173ffffffffffffffffffffffffffffffffffffffff021916908373ffffffffffffffffffffffffffffffffffffffff16021790555060208201518160000160146101000a81548160ff021916908315150217905550905050600e8381548110611be057611bdf614509565b5b90600052602060002090600702016003016000815480929190611c02906147f5565b91905055508173ffffffffffffffffffffffffffffffffffffffff16837f26c4f059ff1a72abbcd21f803acbf17fd77713da3c97711bb171281e7ebac4a2600e8681548110611c5457611c53614509565b5b906000526020600020906007020160030154604051611c739190613263565b60405180910390a3505050565b60007f01ffc9a7000000000000000000000000000000000000000000000000000000007bffffffffffffffffffffffffffffffffffffffffffffffffffffffff1916827bffffffffffffffffffffffffffffffffffffffffffffffffffffffff1916149050919050565b611cf38161268e565b611d32576040517f08c379a0000000000000000000000000000000000000000000000000000000008152600401611d2990613be4565b60405180910390fd5b50565b600033905090565b816004600083815260200190815260200160002060006101000a81548173ffffffffffffffffffffffffffffffffffffffff021916908373ffffffffffffffffffffffffffffffffffffffff160217905550808273ffffffffffffffffffffffffffffffffffffffff16611db083610b64565b73ffffffffffffffffffffffffffffffffffffffff167f8c5be1e5ebec7d5bd14f71427d1e84f3dd0314c0f7b2291e5b200ac8c7c3b92560405160405180910390a45050565b600080611e0283610b64565b90508073ffffffffffffffffffffffffffffffffffffffff168473ffffffffffffffffffffffffffffffffffffffff161480611e445750611e438185611517565b5b80611e8257508373ffffffffffffffffffffffffffffffffffffffff16611e6a846106ef565b73ffffffffffffffffffffffffffffffffffffffff16145b91505092915050565b8273ffffffffffffffffffffffffffffffffffffffff16611eab82610b64565b73ffffffffffffffffffffffffffffffffffffffff1614611f01576040517f08c379a0000000000000000000000000000000000000000000000000000000008152600401611ef8906148af565b60405180910390fd5b600073ffffffffffffffffffffffffffffffffffffffff168273ffffffffffffffffffffffffffffffffffffffff1603611f70576040517f08c379a0000000000000000000000000000000000000000000000000000000008152600401611f6790614941565b60405180910390fd5b611f7d83838360016126cf565b8273ffffffffffffffffffffffffffffffffffffffff16611f9d82610b64565b73ffffffffffffffffffffffffffffffffffffffff1614611ff3576040517f08c379a0000000000000000000000000000000000000000000000000000000008152600401611fea906148af565b60405180910390fd5b6004600082815260200190815260200160002060006101000a81549073ffffffffffffffffffffffffffffffffffffffff02191690556001600360008573ffffffffffffffffffffffffffffffffffffffff1673ffffffffffffffffffffffffffffffffffffffff168152602001908152602001600020600082825403925050819055506001600360008473ffffffffffffffffffffffffffffffffffffffff1673ffffffffffffffffffffffffffffffffffffffff16815260200190815260200160002060008282540192505081905550816002600083815260200190815260200160002060006101000a81548173ffffffffffffffffffffffffffffffffffffffff021916908373ffffffffffffffffffffffffffffffffffffffff160217905550808273ffffffffffffffffffffffffffffffffffffffff168473ffffffffffffffffffffffffffffffffffffffff167fddf252ad1be2c89b69c2b068fc378daa952ba7f163c4a11628f55a4df523b3ef60405160405180910390a461217f83838360016127f5565b505050565b60006002600083815260200190815260200160002060009054906101000a900473ffffffffffffffffffffffffffffffffffffffff169050919050565b6121c9611d35565b73ffffffffffffffffffffffffffffffffffffffff166121e7610f06565b73ffffffffffffffffffffffffffffffffffffffff161461223d576040517f08c379a0000000000000000000000000000000000000000000000000000000008152600401612234906149ad565b60405180910390fd5b565b6000600760009054906101000a900473ffffffffffffffffffffffffffffffffffffffff16905081600760006101000a81548173ffffffffffffffffffffffffffffffffffffffff021916908373ffffffffffffffffffffffffffffffffffffffff1602179055508173ffffffffffffffffffffffffffffffffffffffff168173ffffffffffffffffffffffffffffffffffffffff167f8be0079c531659141344cd1fd0a4f28419497f9722a3daafe3b4186f6b6457e060405160405180910390a35050565b8173ffffffffffffffffffffffffffffffffffffffff168373ffffffffffffffffffffffffffffffffffffffff1603612373576040517f08c379a000000000000000000000000000000000000000000000000000000000815260040161236a90614a19565b60405180910390fd5b80600560008573ffffffffffffffffffffffffffffffffffffffff1673ffffffffffffffffffffffffffffffffffffffff16815260200190815260200160002060008473ffffffffffffffffffffffffffffffffffffffff1673ffffffffffffffffffffffffffffffffffffffff16815260200190815260200160002060006101000a81548160ff0219169083151502179055508173ffffffffffffffffffffffffffffffffffffffff168373ffffffffffffffffffffffffffffffffffffffff167f17307eab39ab6107e8899845ad3d59bd9653f200f220920489ca2b5937696c31836040516124649190613009565b60405180910390a3505050565b61247c848484611e8b565b612488848484846127fb565b6124c7576040517f08c379a00000000000000000000000000000000000000000000000000000000081526004016124be90614aab565b60405180910390fd5b50505050565b600081600001549050919050565b6001816000016000828254019250508190555050565b60606124fc82611cea565b600060066000848152602001908152602001600020805461251c906137d8565b80601f0160208091040260200160405190810160405280929190818152602001828054612548906137d8565b80156125955780601f1061256a57610100808354040283529160200191612595565b820191906000526020600020905b81548152906001019060200180831161257857829003601f168201915b5050505050905060006125a6612982565b905060008151036125bb5781925050506125fe565b6000825111156125f05780826040516020016125d8929190614b07565b604051602081830303815290604052925050506125fe565b6125f984612999565b925050505b919050565b61261d828260405180602001604052806000815250612a01565b5050565b61262a8261268e565b612669576040517f08c379a000000000000000000000000000000000000000000000000000000000815260040161266090614b9d565b60405180910390fd5b806006600084815260200190815260200160002090816126899190614234565b505050565b60008073ffffffffffffffffffffffffffffffffffffffff166126b083612184565b73ffffffffffffffffffffffffffffffffffffffff1614159050919050565b60018111156127ef57600073ffffffffffffffffffffffffffffffffffffffff168473ffffffffffffffffffffffffffffffffffffffff16146127635780600360008673ffffffffffffffffffffffffffffffffffffffff1673ffffffffffffffffffffffffffffffffffffffff168152602001908152602001600020600082825461275b9190614bbd565b925050819055505b600073ffffffffffffffffffffffffffffffffffffffff168373ffffffffffffffffffffffffffffffffffffffff16146127ee5780600360008573ffffffffffffffffffffffffffffffffffffffff1673ffffffffffffffffffffffffffffffffffffffff16815260200190815260200160002060008282546127e69190614bf1565b925050819055505b5b50505050565b50505050565b600061281c8473ffffffffffffffffffffffffffffffffffffffff16612a5c565b15612975578373ffffffffffffffffffffffffffffffffffffffff1663150b7a02612845611d35565b8786866040518563ffffffff1660e01b81526004016128679493929190614c7a565b6020604051808303816000875af19250505080156128a357506040513d601f19601f820116820180604052508101906128a09190614cdb565b60015b612925573d80600081146128d3576040519150601f19603f3d011682016040523d82523d6000602084013e6128d8565b606091505b50600081510361291d576040517f08c379a000000000000000000000000000000000000000000000000000000000815260040161291490614aab565b60405180910390fd5b805181602001fd5b63150b7a0260e01b7bffffffffffffffffffffffffffffffffffffffffffffffffffffffff1916817bffffffffffffffffffffffffffffffffffffffffffffffffffffffff19161491505061297a565b600190505b949350505050565b606060405180602001604052806000815250905090565b60606129a482611cea565b60006129ae612982565b905060008151116129ce57604051806020016040528060008152506129f9565b806129d884612a7f565b6040516020016129e9929190614b07565b6040516020818303038152906040525b915050919050565b612a0b8383612b4d565b612a1860008484846127fb565b612a57576040517f08c379a0000000000000000000000000000000000000000000000000000000008152600401612a4e90614aab565b60405180910390fd5b505050565b6000808273ffffffffffffffffffffffffffffffffffffffff163b119050919050565b606060006001612a8e84612d6a565b01905060008167ffffffffffffffff811115612aad57612aac613321565b5b6040519080825280601f01601f191660200182016040528015612adf5781602001600182028036833780820191505090505b509050600082602001820190505b600115612b42578080600190039150507f3031323334353637383961626364656600000000000000000000000000000000600a86061a8153600a8581612b3657612b35614d08565b5b04945060008503612aed575b819350505050919050565b600073ffffffffffffffffffffffffffffffffffffffff168273ffffffffffffffffffffffffffffffffffffffff1603612bbc576040517f08c379a0000000000000000000000000000000000000000000000000000000008152600401612bb390614d83565b60405180910390fd5b612bc58161268e565b15612c05576040517f08c379a0000000000000000000000000000000000000000000000000000000008152600401612bfc90614def565b60405180910390fd5b612c136000838360016126cf565b612c1c8161268e565b15612c5c576040517f08c379a0000000000000000000000000000000000000000000000000000000008152600401612c5390614def565b60405180910390fd5b6001600360008473ffffffffffffffffffffffffffffffffffffffff1673ffffffffffffffffffffffffffffffffffffffff16815260200190815260200160002060008282540192505081905550816002600083815260200190815260200160002060006101000a81548173ffffffffffffffffffffffffffffffffffffffff021916908373ffffffffffffffffffffffffffffffffffffffff160217905550808273ffffffffffffffffffffffffffffffffffffffff16600073ffffffffffffffffffffffffffffffffffffffff167fddf252ad1be2c89b69c2b068fc378daa952ba7f163c4a11628f55a4df523b3ef60405160405180910390a4612d666000838360016127f5565b5050565b600080600090507a184f03e93ff9f4daa797ed6e38ed64bf6a1f0100000000000000008310612dc8577a184f03e93ff9f4daa797ed6e38ed64bf6a1f0100000000000000008381612dbe57612dbd614d08565b5b0492506040810190505b6d04ee2d6d415b85acef81000000008310612e05576d04ee2d6d415b85acef81000000008381612dfb57612dfa614d08565b5b0492506020810190505b662386f26fc100008310612e3457662386f26fc100008381612e2a57612e29614d08565b5b0492506010810190505b6305f5e1008310612e5d576305f5e1008381612e5357612e52614d08565b5b0492506008810190505b6127108310612e82576127108381612e7857612e77614d08565b5b0492506004810190505b60648310612ea55760648381612e9b57612e9a614d08565b5b0492506002810190505b600a8310612eb4576001810190505b80915050919050565b604051806101200160405280600081526020016000815260200160008152602001600081526020016060815260200160608152602001600073ffffffffffffffffffffffffffffffffffffffff1681526020016000151581526020016000151581525090565b6040518060400160405280600073ffffffffffffffffffffffffffffffffffffffff1681526020016000151581525090565b6000604051905090565b600080fd5b600080fd5b60007fffffffff0000000000000000000000000000000000000000000000000000000082169050919050565b612f9e81612f69565b8114612fa957600080fd5b50565b600081359050612fbb81612f95565b92915050565b600060208284031215612fd757612fd6612f5f565b5b6000612fe584828501612fac565b91505092915050565b60008115159050919050565b61300381612fee565b82525050565b600060208201905061301e6000830184612ffa565b92915050565b600081519050919050565b600082825260208201905092915050565b60005b8381101561305e578082015181840152602081019050613043565b60008484015250505050565b6000601f19601f8301169050919050565b600061308682613024565b613090818561302f565b93506130a0818560208601613040565b6130a98161306a565b840191505092915050565b600060208201905081810360008301526130ce818461307b565b905092915050565b6000819050919050565b6130e9816130d6565b81146130f457600080fd5b50565b600081359050613106816130e0565b92915050565b60006020828403121561312257613121612f5f565b5b6000613130848285016130f7565b91505092915050565b600073ffffffffffffffffffffffffffffffffffffffff82169050919050565b600061316482613139565b9050919050565b61317481613159565b82525050565b600060208201905061318f600083018461316b565b92915050565b61319e81613159565b81146131a957600080fd5b50565b6000813590506131bb81613195565b92915050565b600080604083850312156131d8576131d7612f5f565b5b60006131e6858286016131ac565b92505060206131f7858286016130f7565b9150509250929050565b60008060006060848603121561321a57613219612f5f565b5b6000613228868287016131ac565b9350506020613239868287016131ac565b925050604061324a868287016130f7565b9150509250925092565b61325d816130d6565b82525050565b60006020820190506132786000830184613254565b92915050565b60006020828403121561329457613293612f5f565b5b60006132a2848285016131ac565b91505092915050565b6132b481612fee565b81146132bf57600080fd5b50565b6000813590506132d1816132ab565b92915050565b600080604083850312156132ee576132ed612f5f565b5b60006132fc858286016131ac565b925050602061330d858286016132c2565b9150509250929050565b600080fd5b600080fd5b7f4e487b7100000000000000000000000000000000000000000000000000000000600052604160045260246000fd5b6133598261306a565b810181811067ffffffffffffffff8211171561337857613377613321565b5b80604052505050565b600061338b612f55565b90506133978282613350565b919050565b600067ffffffffffffffff8211156133b7576133b6613321565b5b6133c08261306a565b9050602081019050919050565b82818337600083830152505050565b60006133ef6133ea8461339c565b613381565b90508281526020810184848401111561340b5761340a61331c565b5b6134168482856133cd565b509392505050565b600082601f83011261343357613432613317565b5b81356134438482602086016133dc565b91505092915050565b6000806000806080858703121561346657613465612f5f565b5b6000613474878288016131ac565b9450506020613485878288016131ac565b9350506040613496878288016130f7565b925050606085013567ffffffffffffffff8111156134b7576134b6612f64565b5b6134c38782880161341e565b91505092959194509250565b600067ffffffffffffffff8211156134ea576134e9613321565b5b6134f38261306a565b9050602081019050919050565b600061351361350e846134cf565b613381565b90508281526020810184848401111561352f5761352e61331c565b5b61353a8482856133cd565b509392505050565b600082601f83011261355757613556613317565b5b8135613567848260208601613500565b91505092915050565b600080600080600080600060e0888a03121561358f5761358e612f5f565b5b600088013567ffffffffffffffff8111156135ad576135ac612f64565b5b6135b98a828b01613542565b975050602088013567ffffffffffffffff8111156135da576135d9612f64565b5b6135e68a828b01613542565b965050604088013567ffffffffffffffff81111561360757613606612f64565b5b6136138a828b01613542565b955050606088013567ffffffffffffffff81111561363457613633612f64565b5b6136408a828b01613542565b94505060806136518a828b016132c2565b93505060a088013567ffffffffffffffff81111561367257613671612f64565b5b61367e8a828b01613542565b92505060c088013567ffffffffffffffff81111561369f5761369e612f64565b5b6136ab8a828b01613542565b91505092959891949750929550565b600080604083850312156136d1576136d0612f5f565b5b60006136df858286016131ac565b92505060206136f0858286016131ac565b9150509250929050565b60008060006060848603121561371357613712612f5f565b5b6000613721868287016130f7565b9350506020613732868287016131ac565b925050604084013567ffffffffffffffff81111561375357613752612f64565b5b61375f86828701613542565b9150509250925092565b600080604083850312156137805761377f612f5f565b5b600061378e858286016130f7565b925050602061379f858286016131ac565b9150509250929050565b7f4e487b7100000000000000000000000000000000000000000000000000000000600052602260045260246000fd5b600060028204905060018216806137f057607f821691505b602082108103613803576138026137a9565b5b50919050565b7f4552433732313a20617070726f76616c20746f2063757272656e74206f776e6560008201527f7200000000000000000000000000000000000000000000000000000000000000602082015250565b600061386560218361302f565b915061387082613809565b604082019050919050565b6000602082019050818103600083015261389481613858565b9050919050565b7f4552433732313a20617070726f76652063616c6c6572206973206e6f7420746f60008201527f6b656e206f776e6572206f7220617070726f76656420666f7220616c6c000000602082015250565b60006138f7603d8361302f565b91506139028261389b565b604082019050919050565b60006020820190508181036000830152613926816138ea565b9050919050565b7f4552433732313a2063616c6c6572206973206e6f7420746f6b656e206f776e6560008201527f72206f7220617070726f76656400000000000000000000000000000000000000602082015250565b6000613989602d8361302f565b91506139948261392d565b604082019050919050565b600060208201905081810360008301526139b88161397c565b9050919050565b7f596f7520617265206e6f74207468652073757065722061646d696e0000000000600082015250565b60006139f5601b8361302f565b9150613a00826139bf565b602082019050919050565b60006020820190508181036000830152613a24816139e8565b9050919050565b7f596f7520646f6e74206861766520656e6f75676820776974686472617761626c60008201527f652062616c616e63650000000000000000000000000000000000000000000000602082015250565b6000613a8760298361302f565b9150613a9282613a2b565b604082019050919050565b60006020820190508181036000830152613ab681613a7a565b9050919050565b600081905092915050565b50565b6000613ad8600083613abd565b9150613ae382613ac8565b600082019050919050565b6000613af982613acb565b9150819050919050565b7f6f7065726174696f6e2064656e69656400000000000000000000000000000000600082015250565b6000613b3960108361302f565b9150613b4482613b03565b602082019050919050565b60006020820190508181036000830152613b6881613b2c565b9050919050565b6000604082019050613b846000830185613254565b613b91602083018461316b565b9392505050565b7f4552433732313a20696e76616c696420746f6b656e2049440000000000000000600082015250565b6000613bce60188361302f565b9150613bd982613b98565b602082019050919050565b60006020820190508181036000830152613bfd81613bc1565b9050919050565b7f54686973206164647265737320616c7265616479206861732061646d696e207260008201527f6967687473000000000000000000000000000000000000000000000000000000602082015250565b6000613c6060258361302f565b9150613c6b82613c04565b604082019050919050565b60006020820190508181036000830152613c8f81613c53565b9050919050565b7f53757065722041646d696e2063616e7420626520616e2061646d696e00000000600082015250565b6000613ccc601c8361302f565b9150613cd782613c96565b602082019050919050565b60006020820190508181036000830152613cfb81613cbf565b9050919050565b7f4552433732313a2061646472657373207a65726f206973206e6f74206120766160008201527f6c6964206f776e65720000000000000000000000000000000000000000000000602082015250565b6000613d5e60298361302f565b9150613d6982613d02565b604082019050919050565b60006020820190508181036000830152613d8d81613d51565b9050919050565b7f596f7520617265206e6f7420616e2061646d696e000000000000000000000000600082015250565b6000613dca60148361302f565b9150613dd582613d94565b602082019050919050565b60006020820190508181036000830152613df981613dbd565b9050919050565b7f666967687465724f6e652063616e7420626520656d7074790000000000000000600082015250565b6000613e3660188361302f565b9150613e4182613e00565b602082019050919050565b60006020820190508181036000830152613e6581613e29565b9050919050565b7f6669676874657254776f2063616e7420626520656d7074790000000000000000600082015250565b6000613ea260188361302f565b9150613ead82613e6c565b602082019050919050565b60006020820190508181036000830152613ed181613e95565b9050919050565b7f6172656e612063616e7420626520656d70747900000000000000000000000000600082015250565b6000613f0e60138361302f565b9150613f1982613ed8565b602082019050919050565b60006020820190508181036000830152613f3d81613f01565b9050919050565b7f6c6f636174696f6e2063616e7420626520656d70747900000000000000000000600082015250565b6000613f7a60168361302f565b9150613f8582613f44565b602082019050919050565b60006020820190508181036000830152613fa981613f6d565b9050919050565b7f66696c654c696e6b2063616e7420626520656d70747900000000000000000000600082015250565b6000613fe660168361302f565b9150613ff182613fb0565b602082019050919050565b6000602082019050818103600083015261401581613fd9565b9050919050565b7f66696c654349442063616e7420626520656d7074790000000000000000000000600082015250565b600061405260158361302f565b915061405d8261401c565b602082019050919050565b6000602082019050818103600083015261408181614045565b9050919050565b60008190508160005260206000209050919050565b60006020601f8301049050919050565b600082821b905092915050565b6000600883026140ea7fffffffffffffffffffffffffffffffffffffffffffffffffffffffffffffffff826140ad565b6140f486836140ad565b95508019841693508086168417925050509392505050565b6000819050919050565b600061413161412c614127846130d6565b61410c565b6130d6565b9050919050565b6000819050919050565b61414b83614116565b61415f61415782614138565b8484546140ba565b825550505050565b600090565b614174614167565b61417f818484614142565b505050565b5b818110156141a35761419860008261416c565b600181019050614185565b5050565b601f8211156141e8576141b981614088565b6141c28461409d565b810160208510156141d1578190505b6141e56141dd8561409d565b830182614184565b50505b505050565b600082821c905092915050565b600061420b600019846008026141ed565b1980831691505092915050565b600061422483836141fa565b9150826002028217905092915050565b61423d82613024565b67ffffffffffffffff81111561425657614255613321565b5b61426082546137d8565b61426b8282856141a7565b600060209050601f83116001811461429e576000841561428c578287015190505b6142968582614218565b8655506142fe565b601f1984166142ac86614088565b60005b828110156142d4578489015182556001820191506020850194506020810190506142af565b868310156142f157848901516142ed601f8916826141fa565b8355505b6001600288020188555050505b505050505050565b600060e0820190508181036000830152614320818a61307b565b90508181036020830152614334818961307b565b90508181036040830152614348818861307b565b9050818103606083015261435c818761307b565b905061436b6080830186612ffa565b81810360a083015261437d818561307b565b905081810360c0830152614391818461307b565b905098975050505050505050565b7f5468697320746f6b656e20646f6573206e6f7420657869737400000000000000600082015250565b60006143d560198361302f565b91506143e08261439f565b602082019050919050565b60006020820190508181036000830152614404816143c8565b9050919050565b7f4f776e61626c653a206e6577206f776e657220697320746865207a65726f206160008201527f6464726573730000000000000000000000000000000000000000000000000000602082015250565b600061446760268361302f565b91506144728261440b565b604082019050919050565b600060208201905081810360008301526144968161445a565b9050919050565b7f4669676874206e6f7420666f756e640000000000000000000000000000000000600082015250565b60006144d3600f8361302f565b91506144de8261449d565b602082019050919050565b60006020820190508181036000830152614502816144c6565b9050919050565b7f4e487b7100000000000000000000000000000000000000000000000000000000600052603260045260246000fd5b7f6d617820737570706c79207265616368656420666f722074686973206669676860008201527f7400000000000000000000000000000000000000000000000000000000000000602082015250565b600061459460218361302f565b915061459f82614538565b604082019050919050565b600060208201905081810360008301526145c381614587565b9050919050565b7f596f752061726520612073757065722061646d696e2c20796f752063616e742060008201527f7061727469636970617465000000000000000000000000000000000000000000602082015250565b6000614626602b8361302f565b9150614631826145ca565b604082019050919050565b6000602082019050818103600083015261465581614619565b9050919050565b7f596f752061726520616e2061646d696e2c20796f752063616e7420706172746960008201527f6369706174650000000000000000000000000000000000000000000000000000602082015250565b60006146b860268361302f565b91506146c38261465c565b604082019050919050565b600060208201905081810360008301526146e7816146ab565b9050919050565b7f4e6f7420656e6f75676820666f6e647300000000000000000000000000000000600082015250565b600061472460108361302f565b915061472f826146ee565b602082019050919050565b6000602082019050818103600083015261475381614717565b9050919050565b7f596f7520616c7265616479206a6f696e65642074686520666967687400000000600082015250565b6000614790601c8361302f565b915061479b8261475a565b602082019050919050565b600060208201905081810360008301526147bf81614783565b9050919050565b7f4e487b7100000000000000000000000000000000000000000000000000000000600052601160045260246000fd5b6000614800826130d6565b91507fffffffffffffffffffffffffffffffffffffffffffffffffffffffffffffffff8203614832576148316147c6565b5b600182019050919050565b7f4552433732313a207472616e736665722066726f6d20696e636f72726563742060008201527f6f776e6572000000000000000000000000000000000000000000000000000000602082015250565b600061489960258361302f565b91506148a48261483d565b604082019050919050565b600060208201905081810360008301526148c88161488c565b9050919050565b7f4552433732313a207472616e7366657220746f20746865207a65726f2061646460008201527f7265737300000000000000000000000000000000000000000000000000000000602082015250565b600061492b60248361302f565b9150614936826148cf565b604082019050919050565b6000602082019050818103600083015261495a8161491e565b9050919050565b7f4f776e61626c653a2063616c6c6572206973206e6f7420746865206f776e6572600082015250565b600061499760208361302f565b91506149a282614961565b602082019050919050565b600060208201905081810360008301526149c68161498a565b9050919050565b7f4552433732313a20617070726f766520746f2063616c6c657200000000000000600082015250565b6000614a0360198361302f565b9150614a0e826149cd565b602082019050919050565b60006020820190508181036000830152614a32816149f6565b9050919050565b7f4552433732313a207472616e7366657220746f206e6f6e20455243373231526560008201527f63656976657220696d706c656d656e7465720000000000000000000000000000602082015250565b6000614a9560328361302f565b9150614aa082614a39565b604082019050919050565b60006020820190508181036000830152614ac481614a88565b9050919050565b600081905092915050565b6000614ae182613024565b614aeb8185614acb565b9350614afb818560208601613040565b80840191505092915050565b6000614b138285614ad6565b9150614b1f8284614ad6565b91508190509392505050565b7f45524337323155524953746f726167653a2055524920736574206f66206e6f6e60008201527f6578697374656e7420746f6b656e000000000000000000000000000000000000602082015250565b6000614b87602e8361302f565b9150614b9282614b2b565b604082019050919050565b60006020820190508181036000830152614bb681614b7a565b9050919050565b6000614bc8826130d6565b9150614bd3836130d6565b9250828203905081811115614beb57614bea6147c6565b5b92915050565b6000614bfc826130d6565b9150614c07836130d6565b9250828201905080821115614c1f57614c1e6147c6565b5b92915050565b600081519050919050565b600082825260208201905092915050565b6000614c4c82614c25565b614c568185614c30565b9350614c66818560208601613040565b614c6f8161306a565b840191505092915050565b6000608082019050614c8f600083018761316b565b614c9c602083018661316b565b614ca96040830185613254565b8181036060830152614cbb8184614c41565b905095945050505050565b600081519050614cd581612f95565b92915050565b600060208284031215614cf157614cf0612f5f565b5b6000614cff84828501614cc6565b91505092915050565b7f4e487b7100000000000000000000000000000000000000000000000000000000600052601260045260246000fd5b7f4552433732313a206d696e7420746f20746865207a65726f2061646472657373600082015250565b6000614d6d60208361302f565b9150614d7882614d37565b602082019050919050565b60006020820190508181036000830152614d9c81614d60565b9050919050565b7f4552433732313a20746f6b656e20616c7265616479206d696e74656400000000600082015250565b6000614dd9601c8361302f565b9150614de482614da3565b602082019050919050565b60006020820190508181036000830152614e0881614dcc565b905091905056fea2646970667358221220bfdfaf30d46f86ee8a3b06c0668bb66ee17676e9b9bd67ff254b03d514afaeba64736f6c63430008110033",
  "linkReferences": {},
  "deployedLinkReferences": {}
}