{
  "_format": "hh-sol-artifact-1",
  "contractName": "UserFactory",
  "sourceName": "contracts/UserFactory.sol",
  "abi": [
    {
      "inputs": [
        {
          "internalType": "address",
          "name": "_userProxyContractAddress",
          "type": "address"
        }
      ],
      "stateMutability": "nonpayable",
      "type": "constructor"
    },
    {
      "anonymous": false,
      "inputs": [
        {
          "indexed": true,
          "internalType": "address",
          "name": "previousOwner",
          "type": "address"
        },
        {
          "indexed": true,
          "internalType": "address",
          "name": "newOwner",
          "type": "address"
        }
      ],
      "name": "OwnershipTransferred",
      "type": "event"
    },
    {
      "anonymous": false,
      "inputs": [
        {
          "indexed": true,
          "internalType": "address",
          "name": "userContractAddress",
          "type": "address"
        },
        {
          "indexed": true,
          "internalType": "address",
          "name": "userAddress",
          "type": "address"
        },
        {
          "indexed": false,
          "internalType": "string",
          "name": "firstname",
          "type": "string"
        },
        {
          "indexed": false,
          "internalType": "string",
          "name": "lastname",
          "type": "string"
        },
        {
          "indexed": false,
          "internalType": "string",
          "name": "email",
          "type": "string"
        },
        {
          "indexed": false,
          "internalType": "string",
          "name": "country",
          "type": "string"
        },
        {
          "indexed": false,
          "internalType": "uint256",
          "name": "dob",
          "type": "uint256"
        }
      ],
      "name": "UserCreated",
      "type": "event"
    },
    {
      "anonymous": false,
      "inputs": [
        {
          "indexed": true,
          "internalType": "address",
          "name": "previousUserProxyContractAddress",
          "type": "address"
        },
        {
          "indexed": true,
          "internalType": "address",
          "name": "newUserProxyContractAddress",
          "type": "address"
        }
      ],
      "name": "UserProxyContractAddressUpdated",
      "type": "event"
    },
    {
      "inputs": [
        {
          "internalType": "string",
          "name": "_firstname",
          "type": "string"
        },
        {
          "internalType": "string",
          "name": "_lastname",
          "type": "string"
        },
        {
          "internalType": "string",
          "name": "_email",
          "type": "string"
        },
        {
          "internalType": "string",
          "name": "_country",
          "type": "string"
        },
        {
          "internalType": "uint256",
          "name": "_dob",
          "type": "uint256"
        }
      ],
      "name": "create",
      "outputs": [],
      "stateMutability": "payable",
      "type": "function"
    },
    {
      "inputs": [],
      "name": "owner",
      "outputs": [
        {
          "internalType": "address",
          "name": "",
          "type": "address"
        }
      ],
      "stateMutability": "view",
      "type": "function"
    },
    {
      "inputs": [],
      "name": "renounceOwnership",
      "outputs": [],
      "stateMutability": "nonpayable",
      "type": "function"
    },
    {
      "inputs": [
        {
          "internalType": "address",
          "name": "newOwner",
          "type": "address"
        }
      ],
      "name": "transferOwnership",
      "outputs": [],
      "stateMutability": "nonpayable",
      "type": "function"
    },
    {
      "inputs": [
        {
          "internalType": "address",
          "name": "_userProxyContractAddress",
          "type": "address"
        }
      ],
      "name": "updateUserProxyContractAddress",
      "outputs": [],
      "stateMutability": "nonpayable",
      "type": "function"
    },
    {
      "inputs": [],
      "name": "userProxyContractAddress",
      "outputs": [
        {
          "internalType": "address",
          "name": "",
          "type": "address"
        }
      ],
      "stateMutability": "view",
      "type": "function"
    }
  ],
  "bytecode": "0x60806040523480156200001157600080fd5b50604051620010fd380380620010fd8339818101604052810190620000379190620001d5565b620000576200004b6200009f60201b60201c565b620000a760201b60201c565b80600160006101000a81548173ffffffffffffffffffffffffffffffffffffffff021916908373ffffffffffffffffffffffffffffffffffffffff1602179055505062000207565b600033905090565b60008060009054906101000a900473ffffffffffffffffffffffffffffffffffffffff169050816000806101000a81548173ffffffffffffffffffffffffffffffffffffffff021916908373ffffffffffffffffffffffffffffffffffffffff1602179055508173ffffffffffffffffffffffffffffffffffffffff168173ffffffffffffffffffffffffffffffffffffffff167f8be0079c531659141344cd1fd0a4f28419497f9722a3daafe3b4186f6b6457e060405160405180910390a35050565b600080fd5b600073ffffffffffffffffffffffffffffffffffffffff82169050919050565b60006200019d8262000170565b9050919050565b620001af8162000190565b8114620001bb57600080fd5b50565b600081519050620001cf81620001a4565b92915050565b600060208284031215620001ee57620001ed6200016b565b5b6000620001fe84828501620001be565b91505092915050565b610ee680620002176000396000f3fe6080604052600436106100555760003560e01c80632fde70d11461005a578063715018a6146100765780638da5cb5b1461008d5780639615b081146100b8578063f2fde38b146100e3578063f8dfe2131461010c575b600080fd5b610074600480360381019061006f91906109ab565b610135565b005b34801561008257600080fd5b5061008b61038f565b005b34801561009957600080fd5b506100a26103a3565b6040516100af9190610ad7565b60405180910390f35b3480156100c457600080fd5b506100cd6103cc565b6040516100da9190610ad7565b60405180910390f35b3480156100ef57600080fd5b5061010a60048036038101906101059190610b1e565b6103f2565b005b34801561011857600080fd5b50610133600480360381019061012e9190610b1e565b610475565b005b60001515600360003373ffffffffffffffffffffffffffffffffffffffff1673ffffffffffffffffffffffffffffffffffffffff16815260200190815260200160002060009054906101000a900460ff161515146101c8576040517f08c379a00000000000000000000000000000000000000000000000000000000081526004016101bf90610ba8565b60405180910390fd5b60006101f5600160009054906101000a900473ffffffffffffffffffffffffffffffffffffffff16610644565b90508073ffffffffffffffffffffffffffffffffffffffff16632fde70d187878787876040518663ffffffff1660e01b8152600401610238959493929190610c45565b600060405180830381600087803b15801561025257600080fd5b505af1158015610266573d6000803e3d6000fd5b505050506001600360003373ffffffffffffffffffffffffffffffffffffffff1673ffffffffffffffffffffffffffffffffffffffff16815260200190815260200160002060006101000a81548160ff0219169083151502179055506001600260008373ffffffffffffffffffffffffffffffffffffffff1673ffffffffffffffffffffffffffffffffffffffff16815260200190815260200160002060006101000a81548160ff0219169083151502179055503373ffffffffffffffffffffffffffffffffffffffff168173ffffffffffffffffffffffffffffffffffffffff167f99b94b85db1ad8a9c060a2fc07f2b06ac1103d4db844466b0c4df97fe5e6ec0a888888888860405161037f959493929190610c45565b60405180910390a3505050505050565b6103976106ae565b6103a1600061072c565b565b60008060009054906101000a900473ffffffffffffffffffffffffffffffffffffffff16905090565b600160009054906101000a900473ffffffffffffffffffffffffffffffffffffffff1681565b6103fa6106ae565b600073ffffffffffffffffffffffffffffffffffffffff168173ffffffffffffffffffffffffffffffffffffffff1603610469576040517f08c379a000000000000000000000000000000000000000000000000000000000815260040161046090610d26565b60405180910390fd5b6104728161072c565b50565b61047d6106ae565b8073ffffffffffffffffffffffffffffffffffffffff16600160009054906101000a900473ffffffffffffffffffffffffffffffffffffffff1673ffffffffffffffffffffffffffffffffffffffff160361050d576040517f08c379a000000000000000000000000000000000000000000000000000000000815260040161050490610db8565b60405180910390fd5b6001151561051a826107f0565b15151461055c576040517f08c379a000000000000000000000000000000000000000000000000000000000815260040161055390610e24565b60405180910390fd5b6000600160009054906101000a900473ffffffffffffffffffffffffffffffffffffffff16905081600160006101000a81548173ffffffffffffffffffffffffffffffffffffffff021916908373ffffffffffffffffffffffffffffffffffffffff160217905550600160009054906101000a900473ffffffffffffffffffffffffffffffffffffffff1673ffffffffffffffffffffffffffffffffffffffff168173ffffffffffffffffffffffffffffffffffffffff167f38897bbac68be766a72f215568de1146fbeff3972a411996b8db9996642d12cb60405160405180910390a35050565b6000808260601b90506040517f3d602d80600a3d3981f3363d3d373d3d3d363d7300000000000000000000000081528160148201527f5af43d82803e903d91602b57fd5bf3000000000000000000000000000000000060288201526037816000f092505050919050565b6106b6610813565b73ffffffffffffffffffffffffffffffffffffffff166106d46103a3565b73ffffffffffffffffffffffffffffffffffffffff161461072a576040517f08c379a000000000000000000000000000000000000000000000000000000000815260040161072190610e90565b60405180910390fd5b565b60008060009054906101000a900473ffffffffffffffffffffffffffffffffffffffff169050816000806101000a81548173ffffffffffffffffffffffffffffffffffffffff021916908373ffffffffffffffffffffffffffffffffffffffff1602179055508173ffffffffffffffffffffffffffffffffffffffff168173ffffffffffffffffffffffffffffffffffffffff167f8be0079c531659141344cd1fd0a4f28419497f9722a3daafe3b4186f6b6457e060405160405180910390a35050565b6000808273ffffffffffffffffffffffffffffffffffffffff163b119050919050565b600033905090565b6000604051905090565b600080fd5b600080fd5b600080fd5b600080fd5b6000601f19601f8301169050919050565b7f4e487b7100000000000000000000000000000000000000000000000000000000600052604160045260246000fd5b61088282610839565b810181811067ffffffffffffffff821117156108a1576108a061084a565b5b80604052505050565b60006108b461081b565b90506108c08282610879565b919050565b600067ffffffffffffffff8211156108e0576108df61084a565b5b6108e982610839565b9050602081019050919050565b82818337600083830152505050565b6000610918610913846108c5565b6108aa565b90508281526020810184848401111561093457610933610834565b5b61093f8482856108f6565b509392505050565b600082601f83011261095c5761095b61082f565b5b813561096c848260208601610905565b91505092915050565b6000819050919050565b61098881610975565b811461099357600080fd5b50565b6000813590506109a58161097f565b92915050565b600080600080600060a086880312156109c7576109c6610825565b5b600086013567ffffffffffffffff8111156109e5576109e461082a565b5b6109f188828901610947565b955050602086013567ffffffffffffffff811115610a1257610a1161082a565b5b610a1e88828901610947565b945050604086013567ffffffffffffffff811115610a3f57610a3e61082a565b5b610a4b88828901610947565b935050606086013567ffffffffffffffff811115610a6c57610a6b61082a565b5b610a7888828901610947565b9250506080610a8988828901610996565b9150509295509295909350565b600073ffffffffffffffffffffffffffffffffffffffff82169050919050565b6000610ac182610a96565b9050919050565b610ad181610ab6565b82525050565b6000602082019050610aec6000830184610ac8565b92915050565b610afb81610ab6565b8114610b0657600080fd5b50565b600081359050610b1881610af2565b92915050565b600060208284031215610b3457610b33610825565b5b6000610b4284828501610b09565b91505092915050565b600082825260208201905092915050565b7f596f7520616c7265616479206861766520616e206163636f756e740000000000600082015250565b6000610b92601b83610b4b565b9150610b9d82610b5c565b602082019050919050565b60006020820190508181036000830152610bc181610b85565b9050919050565b600081519050919050565b60005b83811015610bf1578082015181840152602081019050610bd6565b60008484015250505050565b6000610c0882610bc8565b610c128185610b4b565b9350610c22818560208601610bd3565b610c2b81610839565b840191505092915050565b610c3f81610975565b82525050565b600060a0820190508181036000830152610c5f8188610bfd565b90508181036020830152610c738187610bfd565b90508181036040830152610c878186610bfd565b90508181036060830152610c9b8185610bfd565b9050610caa6080830184610c36565b9695505050505050565b7f4f776e61626c653a206e6577206f776e657220697320746865207a65726f206160008201527f6464726573730000000000000000000000000000000000000000000000000000602082015250565b6000610d10602683610b4b565b9150610d1b82610cb4565b604082019050919050565b60006020820190508181036000830152610d3f81610d03565b9050919050565b7f54686973206164647265737320697320616c726561647920757365642061732060008201527f7468652070726f78790000000000000000000000000000000000000000000000602082015250565b6000610da2602983610b4b565b9150610dad82610d46565b604082019050919050565b60006020820190508181036000830152610dd181610d95565b9050919050565b7f50726f76696465642061646472657373206973206e6f742076616c6964000000600082015250565b6000610e0e601d83610b4b565b9150610e1982610dd8565b602082019050919050565b60006020820190508181036000830152610e3d81610e01565b9050919050565b7f4f776e61626c653a2063616c6c6572206973206e6f7420746865206f776e6572600082015250565b6000610e7a602083610b4b565b9150610e8582610e44565b602082019050919050565b60006020820190508181036000830152610ea981610e6d565b905091905056fea264697066735822122007fe2437c87fcdd9d59513b5931c7ba9e92f9000c091d8551829a1aa07194dec64736f6c63430008110033",
  "linkReferences": {},
  "deployedLinkReferences": {}
}