{
  "_format": "hh-sol-artifact-1",
  "contractName": "UserFactory",
  "sourceName": "contracts/UserFactory.sol",
  "abi": [
    {
      "inputs": [
        {
          "internalType": "address",
          "name": "_userProxyContractAddress",
          "type": "address"
        }
      ],
      "stateMutability": "nonpayable",
      "type": "constructor"
    },
    {
      "anonymous": false,
      "inputs": [
        {
          "indexed": true,
          "internalType": "address",
          "name": "previousOwner",
          "type": "address"
        },
        {
          "indexed": true,
          "internalType": "address",
          "name": "newOwner",
          "type": "address"
        }
      ],
      "name": "OwnershipTransferred",
      "type": "event"
    },
    {
      "anonymous": false,
      "inputs": [
        {
          "indexed": true,
          "internalType": "address",
          "name": "userContractAddress",
          "type": "address"
        },
        {
          "indexed": true,
          "internalType": "address",
          "name": "userAddress",
          "type": "address"
        },
        {
          "indexed": false,
          "internalType": "string",
          "name": "pseudo",
          "type": "string"
        }
      ],
      "name": "UserCreated",
      "type": "event"
    },
    {
      "anonymous": false,
      "inputs": [
        {
          "indexed": true,
          "internalType": "address",
          "name": "previousUserProxyContractAddress",
          "type": "address"
        },
        {
          "indexed": true,
          "internalType": "address",
          "name": "newUserProxyContractAddress",
          "type": "address"
        }
      ],
      "name": "UserProxyContractAddressUpdated",
      "type": "event"
    },
    {
      "inputs": [
        {
          "internalType": "string",
          "name": "_pseudo",
          "type": "string"
        }
      ],
      "name": "create",
      "outputs": [],
      "stateMutability": "payable",
      "type": "function"
    },
    {
      "inputs": [],
      "name": "owner",
      "outputs": [
        {
          "internalType": "address",
          "name": "",
          "type": "address"
        }
      ],
      "stateMutability": "view",
      "type": "function"
    },
    {
      "inputs": [],
      "name": "renounceOwnership",
      "outputs": [],
      "stateMutability": "nonpayable",
      "type": "function"
    },
    {
      "inputs": [
        {
          "internalType": "address",
          "name": "newOwner",
          "type": "address"
        }
      ],
      "name": "transferOwnership",
      "outputs": [],
      "stateMutability": "nonpayable",
      "type": "function"
    },
    {
      "inputs": [
        {
          "internalType": "address",
          "name": "_userProxyContractAddress",
          "type": "address"
        }
      ],
      "name": "updateUserProxyContractAddress",
      "outputs": [],
      "stateMutability": "nonpayable",
      "type": "function"
    },
    {
      "inputs": [],
      "name": "userProxyContractAddress",
      "outputs": [
        {
          "internalType": "address",
          "name": "",
          "type": "address"
        }
      ],
      "stateMutability": "view",
      "type": "function"
    }
  ],
  "bytecode": "0x60806040523480156200001157600080fd5b5060405162000fb538038062000fb58339818101604052810190620000379190620001d5565b620000576200004b6200009f60201b60201c565b620000a760201b60201c565b80600160006101000a81548173ffffffffffffffffffffffffffffffffffffffff021916908373ffffffffffffffffffffffffffffffffffffffff1602179055505062000207565b600033905090565b60008060009054906101000a900473ffffffffffffffffffffffffffffffffffffffff169050816000806101000a81548173ffffffffffffffffffffffffffffffffffffffff021916908373ffffffffffffffffffffffffffffffffffffffff1602179055508173ffffffffffffffffffffffffffffffffffffffff168173ffffffffffffffffffffffffffffffffffffffff167f8be0079c531659141344cd1fd0a4f28419497f9722a3daafe3b4186f6b6457e060405160405180910390a35050565b600080fd5b600073ffffffffffffffffffffffffffffffffffffffff82169050919050565b60006200019d8262000170565b9050919050565b620001af8162000190565b8114620001bb57600080fd5b50565b600081519050620001cf81620001a4565b92915050565b600060208284031215620001ee57620001ed6200016b565b5b6000620001fe84828501620001be565b91505092915050565b610d9e80620002176000396000f3fe6080604052600436106100555760003560e01c8063715018a61461005a5780638da5cb5b146100715780639615b0811461009c578063b6a46b3b146100c7578063f2fde38b146100e3578063f8dfe2131461010c575b600080fd5b34801561006657600080fd5b5061006f610135565b005b34801561007d57600080fd5b50610086610149565b6040516100939190610848565b60405180910390f35b3480156100a857600080fd5b506100b1610172565b6040516100be9190610848565b60405180910390f35b6100e160048036038101906100dc91906109bd565b610198565b005b3480156100ef57600080fd5b5061010a60048036038101906101059190610a32565b6103de565b005b34801561011857600080fd5b50610133600480360381019061012e9190610a32565b610461565b005b61013d610630565b61014760006106ae565b565b60008060009054906101000a900473ffffffffffffffffffffffffffffffffffffffff16905090565b600160009054906101000a900473ffffffffffffffffffffffffffffffffffffffff1681565b60001515600360003373ffffffffffffffffffffffffffffffffffffffff1673ffffffffffffffffffffffffffffffffffffffff16815260200190815260200160002060009054906101000a900460ff1615151461022b576040517f08c379a000000000000000000000000000000000000000000000000000000000815260040161022290610abc565b60405180910390fd5b6000610258600160009054906101000a900473ffffffffffffffffffffffffffffffffffffffff16610772565b90508073ffffffffffffffffffffffffffffffffffffffff1663b6a46b3b836040518263ffffffff1660e01b81526004016102939190610b4a565b600060405180830381600087803b1580156102ad57600080fd5b505af11580156102c1573d6000803e3d6000fd5b505050506001600360003373ffffffffffffffffffffffffffffffffffffffff1673ffffffffffffffffffffffffffffffffffffffff16815260200190815260200160002060006101000a81548160ff0219169083151502179055506001600260008373ffffffffffffffffffffffffffffffffffffffff1673ffffffffffffffffffffffffffffffffffffffff16815260200190815260200160002060006101000a81548160ff0219169083151502179055503373ffffffffffffffffffffffffffffffffffffffff168173ffffffffffffffffffffffffffffffffffffffff167f18ec4f5105ebc1c1386f80a08c4728bab0e689df192b374e6b95c60c8baecd90846040516103d29190610b4a565b60405180910390a35050565b6103e6610630565b600073ffffffffffffffffffffffffffffffffffffffff168173ffffffffffffffffffffffffffffffffffffffff1603610455576040517f08c379a000000000000000000000000000000000000000000000000000000000815260040161044c90610bde565b60405180910390fd5b61045e816106ae565b50565b610469610630565b8073ffffffffffffffffffffffffffffffffffffffff16600160009054906101000a900473ffffffffffffffffffffffffffffffffffffffff1673ffffffffffffffffffffffffffffffffffffffff16036104f9576040517f08c379a00000000000000000000000000000000000000000000000000000000081526004016104f090610c70565b60405180910390fd5b60011515610506826107dc565b151514610548576040517f08c379a000000000000000000000000000000000000000000000000000000000815260040161053f90610cdc565b60405180910390fd5b6000600160009054906101000a900473ffffffffffffffffffffffffffffffffffffffff16905081600160006101000a81548173ffffffffffffffffffffffffffffffffffffffff021916908373ffffffffffffffffffffffffffffffffffffffff160217905550600160009054906101000a900473ffffffffffffffffffffffffffffffffffffffff1673ffffffffffffffffffffffffffffffffffffffff168173ffffffffffffffffffffffffffffffffffffffff167f38897bbac68be766a72f215568de1146fbeff3972a411996b8db9996642d12cb60405160405180910390a35050565b6106386107ff565b73ffffffffffffffffffffffffffffffffffffffff16610656610149565b73ffffffffffffffffffffffffffffffffffffffff16146106ac576040517f08c379a00000000000000000000000000000000000000000000000000000000081526004016106a390610d48565b60405180910390fd5b565b60008060009054906101000a900473ffffffffffffffffffffffffffffffffffffffff169050816000806101000a81548173ffffffffffffffffffffffffffffffffffffffff021916908373ffffffffffffffffffffffffffffffffffffffff1602179055508173ffffffffffffffffffffffffffffffffffffffff168173ffffffffffffffffffffffffffffffffffffffff167f8be0079c531659141344cd1fd0a4f28419497f9722a3daafe3b4186f6b6457e060405160405180910390a35050565b6000808260601b90506040517f3d602d80600a3d3981f3363d3d373d3d3d363d7300000000000000000000000081528160148201527f5af43d82803e903d91602b57fd5bf3000000000000000000000000000000000060288201526037816000f092505050919050565b6000808273ffffffffffffffffffffffffffffffffffffffff163b119050919050565b600033905090565b600073ffffffffffffffffffffffffffffffffffffffff82169050919050565b600061083282610807565b9050919050565b61084281610827565b82525050565b600060208201905061085d6000830184610839565b92915050565b6000604051905090565b600080fd5b600080fd5b600080fd5b600080fd5b6000601f19601f8301169050919050565b7f4e487b7100000000000000000000000000000000000000000000000000000000600052604160045260246000fd5b6108ca82610881565b810181811067ffffffffffffffff821117156108e9576108e8610892565b5b80604052505050565b60006108fc610863565b905061090882826108c1565b919050565b600067ffffffffffffffff82111561092857610927610892565b5b61093182610881565b9050602081019050919050565b82818337600083830152505050565b600061096061095b8461090d565b6108f2565b90508281526020810184848401111561097c5761097b61087c565b5b61098784828561093e565b509392505050565b600082601f8301126109a4576109a3610877565b5b81356109b484826020860161094d565b91505092915050565b6000602082840312156109d3576109d261086d565b5b600082013567ffffffffffffffff8111156109f1576109f0610872565b5b6109fd8482850161098f565b91505092915050565b610a0f81610827565b8114610a1a57600080fd5b50565b600081359050610a2c81610a06565b92915050565b600060208284031215610a4857610a4761086d565b5b6000610a5684828501610a1d565b91505092915050565b600082825260208201905092915050565b7f596f7520616c7265616479206861766520616e206163636f756e740000000000600082015250565b6000610aa6601b83610a5f565b9150610ab182610a70565b602082019050919050565b60006020820190508181036000830152610ad581610a99565b9050919050565b600081519050919050565b60005b83811015610b05578082015181840152602081019050610aea565b60008484015250505050565b6000610b1c82610adc565b610b268185610a5f565b9350610b36818560208601610ae7565b610b3f81610881565b840191505092915050565b60006020820190508181036000830152610b648184610b11565b905092915050565b7f4f776e61626c653a206e6577206f776e657220697320746865207a65726f206160008201527f6464726573730000000000000000000000000000000000000000000000000000602082015250565b6000610bc8602683610a5f565b9150610bd382610b6c565b604082019050919050565b60006020820190508181036000830152610bf781610bbb565b9050919050565b7f54686973206164647265737320697320616c726561647920757365642061732060008201527f7468652070726f78790000000000000000000000000000000000000000000000602082015250565b6000610c5a602983610a5f565b9150610c6582610bfe565b604082019050919050565b60006020820190508181036000830152610c8981610c4d565b9050919050565b7f50726f76696465642061646472657373206973206e6f742076616c6964000000600082015250565b6000610cc6601d83610a5f565b9150610cd182610c90565b602082019050919050565b60006020820190508181036000830152610cf581610cb9565b9050919050565b7f4f776e61626c653a2063616c6c6572206973206e6f7420746865206f776e6572600082015250565b6000610d32602083610a5f565b9150610d3d82610cfc565b602082019050919050565b60006020820190508181036000830152610d6181610d25565b905091905056fea26469706673582212204d0f198ac691b47af16a05c5e841867f4120520c4be7f61dc813c625faa10c5a64736f6c63430008110033",
  "linkReferences": {},
  "deployedLinkReferences": {}
}