{
  "_format": "hh-sol-artifact-1",
  "contractName": "User",
  "sourceName": "contracts/User.sol",
  "abi": [
    {
      "anonymous": false,
      "inputs": [
        {
          "indexed": true,
          "internalType": "address",
          "name": "previousERC721ContractAddressEmitter",
          "type": "address"
        },
        {
          "indexed": true,
          "internalType": "address",
          "name": "newERC721ContractAddressEmitter",
          "type": "address"
        }
      ],
      "name": "ERC721ContractAddressEmitterUpdated",
      "type": "event"
    },
    {
      "anonymous": false,
      "inputs": [
        {
          "indexed": true,
          "internalType": "address",
          "name": "_userAddress",
          "type": "address"
        },
        {
          "indexed": false,
          "internalType": "string",
          "name": "_pseudo",
          "type": "string"
        }
      ],
      "name": "UserCreated",
      "type": "event"
    },
    {
      "inputs": [
        {
          "internalType": "string",
          "name": "_pseudo",
          "type": "string"
        }
      ],
      "name": "create",
      "outputs": [],
      "stateMutability": "nonpayable",
      "type": "function"
    },
    {
      "inputs": [
        {
          "internalType": "address",
          "name": "",
          "type": "address"
        },
        {
          "internalType": "address",
          "name": "",
          "type": "address"
        },
        {
          "internalType": "uint256",
          "name": "",
          "type": "uint256"
        },
        {
          "internalType": "bytes",
          "name": "",
          "type": "bytes"
        }
      ],
      "name": "onERC721Received",
      "outputs": [
        {
          "internalType": "bytes4",
          "name": "",
          "type": "bytes4"
        }
      ],
      "stateMutability": "pure",
      "type": "function"
    }
  ],
  "bytecode": "0x608060405234801561001057600080fd5b5061097f806100206000396000f3fe608060405234801561001057600080fd5b50600436106100365760003560e01c8063150b7a021461003b578063b6a46b3b1461006b575b600080fd5b6100556004803603810190610050919061030f565b610087565b60405161006291906103d2565b60405180910390f35b6100856004803603810190610080919061052e565b61009c565b005b600063150b7a0260e01b905095945050505050565b600073ffffffffffffffffffffffffffffffffffffffff166000800160009054906101000a900473ffffffffffffffffffffffffffffffffffffffff1673ffffffffffffffffffffffffffffffffffffffff161461012f576040517f08c379a0000000000000000000000000000000000000000000000000000000008152600401610126906105d4565b60405180910390fd5b6000815103610173576040517f08c379a000000000000000000000000000000000000000000000000000000000815260040161016a90610640565b60405180910390fd5b60405180604001604052803373ffffffffffffffffffffffffffffffffffffffff168152602001828152506000808201518160000160006101000a81548173ffffffffffffffffffffffffffffffffffffffff021916908373ffffffffffffffffffffffffffffffffffffffff16021790555060208201518160010190816101fb9190610877565b5090505050565b6000604051905090565b600080fd5b600080fd5b600073ffffffffffffffffffffffffffffffffffffffff82169050919050565b600061024182610216565b9050919050565b61025181610236565b811461025c57600080fd5b50565b60008135905061026e81610248565b92915050565b6000819050919050565b61028781610274565b811461029257600080fd5b50565b6000813590506102a48161027e565b92915050565b600080fd5b600080fd5b600080fd5b60008083601f8401126102cf576102ce6102aa565b5b8235905067ffffffffffffffff8111156102ec576102eb6102af565b5b602083019150836001820283011115610308576103076102b4565b5b9250929050565b60008060008060006080868803121561032b5761032a61020c565b5b60006103398882890161025f565b955050602061034a8882890161025f565b945050604061035b88828901610295565b935050606086013567ffffffffffffffff81111561037c5761037b610211565b5b610388888289016102b9565b92509250509295509295909350565b60007fffffffff0000000000000000000000000000000000000000000000000000000082169050919050565b6103cc81610397565b82525050565b60006020820190506103e760008301846103c3565b92915050565b600080fd5b6000601f19601f8301169050919050565b7f4e487b7100000000000000000000000000000000000000000000000000000000600052604160045260246000fd5b61043b826103f2565b810181811067ffffffffffffffff8211171561045a57610459610403565b5b80604052505050565b600061046d610202565b90506104798282610432565b919050565b600067ffffffffffffffff82111561049957610498610403565b5b6104a2826103f2565b9050602081019050919050565b82818337600083830152505050565b60006104d16104cc8461047e565b610463565b9050828152602081018484840111156104ed576104ec6103ed565b5b6104f88482856104af565b509392505050565b600082601f830112610515576105146102aa565b5b81356105258482602086016104be565b91505092915050565b6000602082840312156105445761054361020c565b5b600082013567ffffffffffffffff81111561056257610561610211565b5b61056e84828501610500565b91505092915050565b600082825260208201905092915050565b7f596f7520616c7265616479206861766520616e206163636f756e740000000000600082015250565b60006105be601b83610577565b91506105c982610588565b602082019050919050565b600060208201905081810360008301526105ed816105b1565b9050919050565b7f70736575646f2063616e7420626520656d707479000000000000000000000000600082015250565b600061062a601483610577565b9150610635826105f4565b602082019050919050565b600060208201905081810360008301526106598161061d565b9050919050565b600081519050919050565b7f4e487b7100000000000000000000000000000000000000000000000000000000600052602260045260246000fd5b600060028204905060018216806106b257607f821691505b6020821081036106c5576106c461066b565b5b50919050565b60008190508160005260206000209050919050565b60006020601f8301049050919050565b600082821b905092915050565b60006008830261072d7fffffffffffffffffffffffffffffffffffffffffffffffffffffffffffffffff826106f0565b61073786836106f0565b95508019841693508086168417925050509392505050565b6000819050919050565b600061077461076f61076a84610274565b61074f565b610274565b9050919050565b6000819050919050565b61078e83610759565b6107a261079a8261077b565b8484546106fd565b825550505050565b600090565b6107b76107aa565b6107c2818484610785565b505050565b5b818110156107e6576107db6000826107af565b6001810190506107c8565b5050565b601f82111561082b576107fc816106cb565b610805846106e0565b81016020851015610814578190505b610828610820856106e0565b8301826107c7565b50505b505050565b600082821c905092915050565b600061084e60001984600802610830565b1980831691505092915050565b6000610867838361083d565b9150826002028217905092915050565b61088082610660565b67ffffffffffffffff81111561089957610898610403565b5b6108a3825461069a565b6108ae8282856107ea565b600060209050601f8311600181146108e157600084156108cf578287015190505b6108d9858261085b565b865550610941565b601f1984166108ef866106cb565b60005b82811015610917578489015182556001820191506020850194506020810190506108f2565b868310156109345784890151610930601f89168261083d565b8355505b6001600288020188555050505b50505050505056fea26469706673582212201d069d1d85fe2fdd2c97065f18fb5d60f6ed3f83c91c5746c592ec486f88bd9364736f6c63430008110033",
  "linkReferences": {},
  "deployedLinkReferences": {}
}